:020000040000fa
:080000000002040000000000f2
:020000040000fa
:04000800e60300000b
:020000040000fa
:04000c00e603000007
:020000040000fa
:04001000e603000003
:020000040000fa
:04001400e6030000ff
:020000040000fa
:04001800e6030000fb
:020000040000fa
:04001c00e6030000f7
:020000040000fa
:04002000e6030000f3
:020000040000fa
:04002400e6030000ef
:020000040000fa
:04002800e6030000eb
:020000040000fa
:04002c00e6030000e7
:020000040000fa
:04003000e6030000e3
:020000040000fa
:0400340002030000c3
:020000040000fa
:04003800e6030000db
:020000040000fa
:04003c00e6030000d7
:020000040000fa
:04004000e6030000d3
:020000040000fa
:04004400e6030000cf
:020000040000fa
:04004800fa020000b8
:020000040000fa
:04004c00e6030000c7
:020000040000fa
:04005000e6030000c3
:020000040000fa
:04005400980300000d
:020000040000fa
:040058006e03000033
:020000040000fa
:04005c00400300005d
:020000040000fa
:04006000e6030000b3
:020000040000fa
:04006400e6030000af
:020000040000fa
:04006800e6030000ab
:020000040000fa
:04006c00e6030000a7
:020000040000fa
:04007000e6030000a3
:020000040000fa
:04007400e60300009f
:020000040000fa
:04007800e60300009b
:020000040000fa
:04007c00e603000097
:020000040000fa
:04008000e603000093
:020000040000fa
:04008400e60300008f
:020000040000fa
:04008800e60300008b
:020000040000fa
:04008c00e603000087
:020000040000fa
:04009000e603000083
:020000040000fa
:04009400280300003d
:020000040000fa
:04009800e60300007b
:020000040000fa
:04009c00e603000077
:020000040000fa
:0400a000e603000073
:020000040000fa
:0400a400e60300006f
:020000040000fa
:0400a800e60300006b
:020000040000fa
:0400ac00e603000067
:020000040000fa
:0400b000e603000063
:020000040000fa
:0400b400e60300005f
:020000040000fa
:0400b800e60300005b
:020000040000fa
:0400bc00e603000057
:020000040000fa
:0400c000e603000053
:020000040000fa
:0400c400e60300004f
:020000040000fa
:0400c800e60300004b
:020000040000fa
:0400cc00e603000047
:020000040000fa
:0400d000e603000043
:020000040000fa
:0400d400e60300003f
:020000040000fa
:0400d800e60300003b
:020000040000fa
:0400dc00e603000037
:020000040000fa
:0400e000e603000033
:020000040000fa
:0400e400e60300002f
:020000040000fa
:0400e800e60300002b
:020000040000fa
:0400ec00e603000027
:020000040000fa
:0400f000e603000023
:020000040000fa
:0400f400e60300001f
:020000040000fa
:0400f800e60300001b
:020000040000fa
:0400fc00e603000017
:020000040000fa
:04010000e603000012
:020000040000fa
:04010400e60300000e
:020000040000fa
:04010800e60300000a
:020000040000fa
:04010c00e603000006
:020000040000fa
:04011000e603000002
:020000040000fa
:04011400e6030000fe
:020000040000fa
:04011800e6030000fa
:020000040000fa
:04011c00e6030000f6
:020000040000fa
:04012000e6030000f2
:020000040000fa
:04012400e6030000ee
:020000040000fa
:04012800e6030000ea
:020000040000fa
:04012c00e6030000e6
:020000040000fa
:04013000e6030000e2
:020000040000fa
:04013400e6030000de
:020000040000fa
:04013800e6030000da
:020000040000fa
:04013c00e6030000d6
:020000040000fa
:04014000e6030000d2
:020000040000fa
:04014400e6030000ce
:020000040000fa
:04014800e6030000ca
:020000040000fa
:04014c00e6030000c6
:020000040000fa
:04015000e6030000c2
:020000040000fa
:04015400e6030000be
:020000040000fa
:04015800e6030000ba
:020000040000fa
:04015c00e6030000b6
:020000040000fa
:04016000e6030000b2
:020000040000fa
:04016400e6030000ae
:020000040000fa
:04016800e6030000aa
:020000040000fa
:04016c00e6030000a6
:020000040000fa
:04017000e6030000a2
:020000040000fa
:04017400e60300009e
:020000040000fa
:04017800e60300009a
:020000040000fa
:04017c00e603000096
:020000040000fa
:04018000e603000092
:020000040000fa
:04018400e60300008e
:020000040000fa
:04018800e60300008a
:020000040000fa
:04018c00e603000086
:020000040000fa
:04019000e603000082
:020000040000fa
:04019400e60300007e
:020000040000fa
:04019800e60300007a
:020000040000fa
:04019c00e603000076
:020000040000fa
:0401a000e603000072
:020000040000fa
:0401a400e60300006e
:020000040000fa
:0401a800e60300006a
:020000040000fa
:0401ac00e603000066
:020000040000fa
:0401b000e603000062
:020000040000fa
:0401b400e60300005e
:020000040000fa
:0401b800e60300005a
:020000040000fa
:0401bc00e603000056
:020000040000fa
:0401c000e603000052
:020000040000fa
:0401c400e60300004e
:020000040000fa
:0401c800e60300004a
:020000040000fa
:0401cc00e603000046
:020000040000fa
:0401d000e603000042
:020000040000fa
:0401d400e60300003e
:020000040000fa
:0401d800e60300003a
:020000040000fa
:0401dc00e603000036
:020000040000fa
:0401e000e603000032
:020000040000fa
:0401e400e60300002e
:020000040000fa
:0401e800e60300002a
:020000040000fa
:0401ec00e603000026
:020000040000fa
:0401f000e603000022
:020000040000fa
:0401f400e60300001e
:020000040000fa
:0401f800e60300001a
:020000040000fa
:0401fc00e603000016
:020000040000fa
:04020000e603000011
:020000040000fa
:04020400e60300000d
:020000040000fa
:04020800e603000009
:020000040000fa
:04020c00e603000005
:020000040000fa
:04021000e603000001
:020000040000fa
:04021400e6030000fd
:020000040000fa
:04021800e6030000f9
:020000040000fa
:04021c00e6030000f5
:020000040000fa
:04022000e6030000f1
:020000040000fa
:04022400e6030000ed
:020000040000fa
:04022800e6030000e9
:020000040000fa
:04022c00e6030000e5
:020000040000fa
:04023000e6030000e1
:020000040000fa
:04023400e6030000dd
:020000040000fa
:04023800e6030000d9
:020000040000fa
:04023c00e6030000d5
:020000040000fa
:04024000e6030000d1
:020000040000fa
:04024400e6030000cd
:020000040000fa
:04024800e6030000c9
:020000040000fa
:04024c00e6030000c5
:020000040000fa
:04025000e6030000c1
:020000040000fa
:04025400e6030000bd
:020000040000fa
:04025800e6030000b9
:020000040000fa
:04025c00e6030000b5
:020000040000fa
:04026000e6030000b1
:020000040000fa
:04026400e6030000ad
:020000040000fa
:04026800e6030000a9
:020000040000fa
:04026c00e6030000a5
:020000040000fa
:04027000e6030000a1
:020000040000fa
:04027400e60300009d
:020000040000fa
:04027800e603000099
:020000040000fa
:04027c00e603000095
:020000040000fa
:04028000e603000091
:020000040000fa
:100400004f2521000eff27000e018800000000008c
:10041000000020000000e000020032000001200087
:100420002002880014000700ea0007000000e00036
:1004300003003a0040da21000100200002003700ea
:100440000000200001002000810f70000100320038
:100450000f000700000020000000e0000200320052
:100460000000020000000000ca14020000000000aa
:100470000040da000000fe00800020000000e000e4
:1004800002003200002020009001880000000600d9
:10049000a1028800800478000000eb001f003700f4
:1004a000e284440054a0b4009905ba00e2844400f8
:1004b00054a0b4009906ba00e284440054a0b400e9
:1004c0000006eb00476fde00fd07b200ae018800ba
:1004d000636ce10003003a000ad801000000eb0061
:1004e0000e003700606ce10008003a00004deb00a0
:1004f0000a05e800020039003420ec000af0a000f0
:100500008b05e900f9ff3e00040037006168e10057
:10051000010032000086eb000b00070019c7ba008b
:100520000e04e0001905ba0003003a000a00e000da
:10053000dbff3a0000000600fe07b200ae028800b2
:100540008a047800f5ff37000cd0a300e20f4d00bd
:100550001c00390089027800354dba000a05e80010
:10056000020039003420ec000af0a0008b05e900fd
:100570000f003200254dba000a05e80002003900dc
:100580003420ec000af0a0008b05e90008003200de
:100590000c00e0000600320015cdba000a05e800a4
:1005a000020039003420ec000af0a0008b05e900bd
:1005b0008984e80054a0b4000b00e000e2ff3a0098
:1005c000000006009902ba00055d78008b05e9007d
:1005d000f7ff3200c82ade00055d78008b05e900d0
:1005e000f3ff32000c00e000f1ff320019ddba0029
:1005f000eeff37000000fa000108a9000080fa00b1
:10060000004006003600f800809fbe00829fbe00ba
:10061000849fbe00869fbe000000fa000068a9000b
:10062000440907008406070021060700400507006b
:100630006c0707000080fa004f03be004f02be00a7
:100640004f01be004f00be003600f900004006001a
:10065000809fbe000000fa000368a900308380007c
:100660004183800061004000e080480030838800c2
:10067000418388000080fa004f00be000040060061
:10068000809fbe000000fa0001a8a90001188000a8
:10069000c00521000108780011188000c005210064
:1006a0001100980021188000c00521002100980049
:1006b00031188000c00521003100980041188000e9
:1006c000c00521004100980010c0b30064f0b700dd
:1006d0000080fa004f00be00004006003600f8001f
:1006e000809fbe00829fbe00849fbe00869fbe008a
:1006f0000000fa000188a9007183800060838000f7
:10070000808f500002003200ed0b0700010037001f
:100710007070ef000080fa004f03be004f02be0071
:100720004f01be004f00be003600f9000040060039
:100730003600f800809fbe00829fbe00849fbe00ee
:10074000869fbe000000fa000168a9001011800019
:10075000640060000000e000010032002242a900b5
:1007600010118000620060000000e0000100320013
:100770002222a90010118000680060000000e00043
:10078000060032002262a900050037003011800007
:1007900000407800480c070001003700000000000e
:1007a00010118000610060000000e000f7ff3a00d7
:1007b0000080fa004f03be004f02be004f01be0092
:1007c0004f00be003600f900004006000040da008d
:1007d0000000fe000000050003f0a200889fbe009c
:1007e0008a9fbe008c1f78006e01070075013300e0
:1007f0006450e1004f0032006420e10052003200fa
:1008000003826c0007003b000905d0000306d000fe
:10081000820f54000c065d00020039000200320015
:1008200089017800030678008582550004003d00a8
:100830000003fd008103fd008502ea008b85420074
:10084000840f720002003b0060001000e08018007e
:100850006011b8000005eb007a28e1000a003900b9
:1008600006007800c75ddd00f707b20087807500dd
:100870002d003700828171000a0178006105600057
:100880008180d1000080d3008502e900f9ff3b00a0
:10089000060440008784480002003b006004140006
:1008a000e0841c000988a300070032008a817100df
:1008b00082817100610164008904d1000884d30041
:1008c0008b05e800170037000978a30013003a00f1
:1008d0000b00e000130034008b05e900080444001d
:1008e00089844c000a4474000978a3000d003a0082
:1008f0000b00e000070034008b05e9000804440009
:1009000089844c0001003a000b0020000978a30004
:10091000f7ff32000001eb00020037008281710016
:100920000a017800e40007000cf0a70001f0a00025
:100930002d0137006420e10002003a00838f6c0033
:100940002d0133000801be000200be002601370061
:100950000081eb005f013700889fbe008a9fbe00c8
:100960008c1f78000f0107001601330003866c000e
:100970006450e1002e0032006420e10033003200b8
:100980006150e1002f0032006120e10031003200af
:1009900085855500eb07b000090020000804200001
:1009a000050037000804440089844c000a00310027
:1009b0000603430087834b000001530081815b00e5
:1009c000f8ff33000203be000800a0000804440042
:1009d00089844c00f6ff3900c639dd0083017300bd
:1009e00001003200130020008904d1000884d300e4
:1009f0000998a300050032000800a7000300a0002a
:100a00008904d1000884d3008b05e8008904d10053
:100a10000884d3000001eb000281d200a600070089
:100a200001f0a1000cf0a70001f0a000ee003700db
:100a30006420e100f00032000801be000200be00a8
:100a4000f7ff37006120e100eb0032006000b800e2
:100a5000f3ff37000000200001f82700f0ff370007
:100a60001400200086013700f4ff2f0084013700b6
:100a70000001be00b60007000470a70003f0a1004b
:100a80006509b100160032000d0035006828e1004c
:100a900006003500f0ff2f00f1ff27000300e00003
:100aa00013003b000100280000000500000040008a
:100ab000818048008502e900fcff3a000800370009
:100ac000f88f420002003c008000eb0000000500af
:100ad0008100d1000080d3008502e800fcff3a00cd
:100ae0000300e00002003b0060001000e0801800fe
:100af000000006000001be00950007000470a7007a
:100b000003f0a10003f8a30013003a006509b10047
:100b100010003200090035006928e10002003500ac
:100b2000010028000000050000004000818048000e
:100b30008502e900fcff3a0000000600f88f420041
:100b4000050035008100d1000080d3008502e80057
:100b5000fcff3a00000006008000eb0000000500ea
:100b60004f89de0082017800600137006011b80013
:100b70006e0137000400200000003700889fbe008f
:100b80008a9fbe008c1f78004f26dd00850007007d
:100b90008c0033006120e100430032006250e1002c
:100ba00041003e003e0039006420e1003c0032007c
:100bb000058255000f003b000402e80038003a00af
:100bc000800f5300818f5b00350034000800be00a9
:100bd00003f0a10001f0a60003f0a0000cf0a700b4
:100be000fefe0700800037000603430087834b00aa
:100bf0000c4646000005530081855b00020033006f
:100c00000a03be000c00a0000402e900f6ff3b004e
:100c1000850578000602430087824b0004003a00f5
:100c20006000b80009f0a70001f0a0006e003700d6
:100c30000002520081825a000704e00004003300e1
:100c40000603430087834b008b05e900faff37005a
:100c5000090578000604be000203be006011b8005a
:100c600015000700e00f5200e08f5a000700350022
:100c700002003c000c08a300040032000601be0084
:100c800003f0a0000cf0a700d4fe07000a8568005e
:100c900001f0a1000af0a70001f0a0005200370007
:100ca0000800be0050003700100220000cf0a60023
:100cb000e0838800500037008100200061805500eb
:100cc0000b003d000b00200061fe2f000100e10041
:100cd0001d00340082817100610164008904d1002b
:100ce0000884d3000000e800faff3a0071002000f9
:100cf000610064000300700002006000090032001f
:100d000061044400e0844c000988a500050032001d
:100d10008b05e8006808e10002003a008904d10070
:100d20000884d300f20f20000258e10005003d00c6
:100d3000c75ddd00f907b200898075000800780002
:100d4000000006000bf827008b007800000005006b
:100d5000c70ade00f107b200f50fb200080032004a
:100d6000e1cf4200020032000170a0002400050023
:100d7000810f7000010032000408050044000500e6
:100d8000810f700002003a00140005008502e9009e
:100d90000000400081c04800fcff3b000170a00043
:100da000240005000004be00e9ff07000003be00a8
:100db0000405be000200be00e5ff0700844f750079
:100dc000000006000200be006450e100050036008d
:100dd0006420e100020036000968a30001003a0027
:100de0000800be000160a0004f0678004f05be005d
:100df0004f04be0000000600f0ff2f00f1ff2700a7
:100e0000f9ff3700889fbe008a9fbe008c1f7800c4
:100e1000e4ff0700ebff330003866c006450e10041
:100e2000240032006420e100270032006150e1001c
:100e3000220032006120e100210032008b85420057
:100e4000eb07b1000134b800003ab80008044200d2
:100e500089844a00013ab8000030b8008880400018
:100e600009014a000400330000004000818048006e
:100e7000020149008b05e900c909dd00830170000a
:100e80000100320013002000c814de004814dd0009
:100e90004709de001200b200c808de0008847000b6
:100ea00085ff070001f0a1000cf0a70001f0a000f1
:100eb000cdff37006120e100cfff32000801be0006
:100ec0000200be00f7ff37006150e100fcff3a006e
:100ed000c9ff3700889fbe008a9fbe008c9fbe005e
:100ee000820578000004be0099ff07000800be00dc
:100ef0006420e1000700390002003a00f1ff2700fa
:100f0000f0ff2f000160a00012022000e2838800a1
:100f1000550037006120e10003003a000b00a700f4
:100f200001f823005000370001f0a1000200210069
:100f300093642400cafe07000800be0004003500c8
:100f4000b2fd2000930c24000aff07000004be003d
:100f50000005eb000b00a6004f0dde0001f0a10024
:100f60000004be0032982f0023ea2300a5ff0700eb
:100f70000001eb0003f023000b00a70003f823009f
:100f800016fe0700bafe07000000a7000a00a20034
:100f9000f3fe07000b00e000030032000200200017
:100fa00003f023000cfe070001f0a2000006be00c3
:100fb000020020009304240092ff07000801be00f5
:100fc00006fe0700809fbe000c00be0022a22a0081
:100fd000d3a723008bff07004f01be00fffd0700d2
:100fe0000004be0001f0a1000200200003982300cd
:100ff0009bfe07000800be00190035000001be007e
:1010000080ff07000006be00b2c52900e36223008e
:101010007cff070022222b00f3942b00effd07003a
:101020000c01be0077ff0700e273280083c0230095
:10103000eafd07000c01be0072ff070042aa2a0069
:10104000a3e22b00e5fd07000c01be006dff0700c9
:101050000801be006bff07000801be00dffd0700ae
:101060000a00a70001f0a2004f06be004f05be0017
:101070004f04be00000006000001eb0095ff3700a2
:10108000889fbe008a9fbe00841f780045ff07002e
:101090004f00780011003300f0ff2f00838f6c00a9
:1010a00006003b00040565000a00a70008003700a1
:1010b00009f0a6001000200008003700820f54003d
:1010c000838f5c00030039001000200001003e0007
:1010d0000000200009f0a7000000ea004f05be0054
:1010e0004f04be000000e00000000600881f7800ea
:1010f000030478000300e00007003d0060001000da
:10110000e080180060011900e081190002003b0036
:1011100001f02d00030037000400070008f0a700cd
:1011200001f0a0004f04780000000600889fbe0078
:101130008a9fbe0000827000040271000482710068
:10114000260032000004be000200be006011b8009c
:101150006b092000950220000182cf000a003900af
:101160000541b1000082cf00070039000541b10000
:101170000982cf00040039000541b1000882cf0088
:10118000010039000541b100054252001200320051
:101190000a003b0082817100610164008100d1007e
:1011a0000080d3008984d3000884d3008b05e80035
:1011b0000442e800f7ff3a00070037000804440043
:1011c00089844c0000004800818048008b05e900bc
:1011d0000442e900f9ff3a00b7fe07004f05be00e0
:0811e0004f04be0000000600f0
:020000040000fa
:1011e800426f00006e6a00006f7500007200000018
:020000040000fa
:1011f8000a00fa0020079800310798004207980073
:101208000040eb00004f7800e0cfb3001e4f6800ad
:101218002e0090004800dd00004078001e4f680056
:101228002e009000004078001e4f68003e0090009d
:101238004800dd00004078001e4f68003e00900026
:10124800004078001e4f68000000eb00100798006f
:10125800080037001e009000ce009000008040007b
:10126800104078001e4f68001e0090000000e80043
:10127800100798009e0090003e009000808f50005c
:10128800f4ff35001e4078000080fa0000000600d8
:101298000e00fa00889fbe0040079800510798008a
:1012a800620798000f0478000f0078008004780027
:1012b8005e009000660040008000e9002107980069
:1012c8000000e8000000e8000000d10080004000b5
:1012d8000f007800818747000000e8000000d10077
:1012e80000004000300798000000eb00000f780075
:1012f8003e0090001e004000e1cfb3000148780096
:101308001e0fe8004e0090004880de008040780004
:101318003e0090001e004000014878001e0fe800c3
:101328004e009000804078003e0090001e00400073
:10133800014878001e0fe8005e0090004880de003b
:10134800804078003e0090001e0040000148780070
:101358001e0fe8005e009000804078003e0090007c
:101368001e004000014878001e0fe8000000eb0056
:10137800100798000b0037001e009000ee00900048
:1013880000804000904078003e0090001e00400021
:10139800014878001e0fe8001e0090000000e800d9
:1013a800100798009e0090005e009000808f50000b
:1013b800f1ff35006e019000de0090004e009000b5
:1013c8008bff0700be0090009e8040008048780098
:1013d8001e0fe8003e0090009e0078007c08070081
:1013e80089077800880778004f04be000080fa005b
:1013f800000006000200fa00004f780040828000da
:10140800e30f500023003200e30f500007003c00b8
:10141800e10f500012003200e10f500016003c00ae
:101428000000e0000800320058003700e50f5000c7
:1014380032003200e50f50001c003500e60f500066
:101448003b003200510037001e407800e24f400058
:1014580051003a00100020004082880051003700f7
:101468001e80fb004800dd007082880020002000fc
:10147800408288004b0037009e80fb00708280000d
:101488000080400070828800300020004082880080
:10149800440037001e80fb004800dd008082880081
:1014a80040002000408288003e0037009e80fb00fc
:1014b80080828000008040008082880080828000d6
:1014c8000000e00003003a0060002000408288002d
:1014d8003400370081828000f00f2000808f500098
:1014e800020034004830ef002e0037005000200082
:1014f800408288005230ef002a0037009082800036
:10150800e1172100808040009e4878000000e80034
:10151800908288009182800080828000808f5000b5
:101528001f00350060002000408288001d00370041
:101538001e417800410521008248780081828000a0
:1015480070828000e217210029ff070055f0b700dc
:10155800510521009140780054d0bf0080cf500041
:1015680007003a0010002000b082880081828000c5
:1015780070828000e21721000c000700010037008c
:101588005630ef004830ef00060037004830ef00d3
:1015980000000000030037000000000001003700d1
:1015a800000000000080fa00000006000600fa00b3
:1015b800000f780011079800220798001e00780095
:1015c80011052000810f5000ab00320011052000ea
:1015d800810f500011003c0001032000810f5000d2
:1015e800be00320001032000810f500004003c00bf
:1015f80001022000810f500019003200ba003700a4
:1016080001042000810f50007c00320001052000f9
:10161800810f500094003200b300370031052000dc
:10162800810f50009c00320031052000810f5000ce
:101638009500350041052000810f50009e003200c2
:1016480001082000810f5000a7003a008182800025
:1016580070828000e21721000dff0700a20037000a
:10166800e0172100104078000080fb00e10f5000d7
:1016780023003200e20f5000400032000000e0007a
:1016880098003a00f017210010407800e14f500010
:101698000b003e00f0172100104078006140600008
:1016a8000080fb00610060004600dd0021738000bf
:1016b8000160a10001007000207388000f0037004e
:1016c80021738000000420000080600000f0a70063
:1016d8000000ea000000e9004f00de00004078004a
:1016e8000080fb00610060004600dd00217380007f
:1016f8000160a10001007000207388003e003700df
:10170800f017210010407800e14f50000b003e0018
:10171800f017210010407800614060000080fb0055
:10172800610060004700dd00217380000170a100a6
:1017380001007000207388000f00370021738000bb
:10174800000820000080600000f0a7000000ea0008
:101758000000e9004f00de00004078000080fb0038
:10176800610060004700dd00217380000170a10066
:1017780001007000207388001f003700f017210057
:1017880010407800e14f50000b003e00f017210098
:1017980010407800614060000080fb00610060003c
:1017a8004a00dd002171800001a0a1000100700045
:1017b800207188000f003700217180000040200050
:1017c8000080600000f0a7000000ea000000e900c7
:1017d8004f00de00004078000080fb0061006000e0
:1017e8004a00dd002171800001a0a1000100700005
:1017f80020718800000000003b003700e01721003e
:10180800104078000080fb008000eb00d5fc07004a
:1018180002002000832c240078fd0700020020002d
:10182800f33724004afc070012c0b300ad000700dc
:10183800f0172100104078000080fb008000eb00ca
:10184800c8fc070002002000832c24006bfd070061
:1018580002002000f33724003dfc07000041eb00a4
:10186800a000070020003700e01721001040780092
:101878007a0407001c003700e017210010407800a8
:101888007604070018003700e017210010407800a0
:101898007a04070014003700e01721001040780090
:1018a8000000fb00cf80de00abfc070060928800e0
:1018b800719288000c003700e01721001040780072
:1018c8000000fb00cf80de00a3fc070080928800a8
:1018d800919288000000000003003700000000001b
:1018e80001003700000000000080fa000000060038
:1018f8000000fa001160800080ff2f000080600067
:101908001060880000fa20002060880023aca8003e
:10191800238ca80011618000f03f2f000080600038
:1019280000a0a0001061880030002000206188001d
:10193800c3aca800c38ca80011668000f03f2f003c
:101948000080600000a0a000106688003000200021
:101958002066880001eca8000080fa00000006005c
:101968000600fa00881f7800008fbe0042479800e2
:101978004e409000e14f50002c003a0018c0b300d0
:101988006011b8001e0078009e00900034fc07002b
:101998000000e00001003c000044eb000804e00007
:1019a800110032001e0178009e01900022908800ec
:1019b8003390880023cca90015eea80023eca800da
:1019c8002090800031908000020020000322240033
:1019d8000afd0700f505070044fc07000000780031
:1019e800306188003c0037001e0178009e0190009d
:1019f800229088003390880023eca90015cea80017
:101a080023cca800209080003190800002002000a4
:101a180003222400f9fc0700e405070033fc070053
:101a280000007800306188002b00370018c0b30030
:101a38006011b8001e0078009e00900006fc0700a8
:101a48000000e000010035000044eb000804e0005d
:101a5800110032001e0178009e01900062908800fb
:101a680073908800c3cca90024eea800c3eca8009a
:101a78006090800071908000020020000322240002
:101a8800defc0700c905070018fc07000000780005
:101a980030668800100037001e0178009e01900013
:101aa8006290880073908800c3eca90024cea80037
:101ab800c3cca800609080007190800002002000d4
:101ac80003222400cdfc0700b805070007fc070027
:101ad80000007800306688004f0478000080fa0023
:101ae800000006000600fa00008fbe00424798007a
:101af8004e409000e14f500005003a001e0178006a
:101b08009e0190000290880013908800040037001e
:101b18001e0178009e019000429088005390880032
:101b28000080fa00000006000000fa00889fbe004e
:101b38008a9fbe00117280000000210000806000b2
:101b48000000e0000600320012c0b3006000b800d8
:101b5800e4ff07000041eb006000b800e1ff070068
:101b68006090800071908000900507000004be001e
:101b780040908000519080008c0507001ac0b30087
:101b88000001be000800be00b3fb07000000e00033
:101b9800010035000045eb000a04e00003003200b4
:101ba80078d0bf007af0b7000200370079d0bf00c4
:101bb8007af0b700649080007590800040908000b3
:101bc8005190800018c0b3000001be000400be00a0
:101bd800a1fb07000000e000010035000044eb0015
:101be8000804e0000f0032004890800059908000ff
:101bf8006a9080007b9080007ad0bf000080fb0054
:101c0800cf80de00d4fb07000001be000a00be0042
:101c1800f0fa07000801be009205070060908800ee
:101c280071908800649080007590800040908000da
:101c38005190800018c0b3000001be000400be002f
:101c480087fb07000000e00001003c000044eb00b7
:101c58000804e0000f00320048908000599080008e
:101c68006a9080007b9080007ad0bf000080fb00e3
:101c7800cf80de00b8fb07000001be000a00be00ee
:101c8800d3fa07000801be005e05070060908800cf
:101c980071908800609080007190800018c0b30037
:101ca8006011b8006efb07000000e00001003c0076
:101cb8000044eb000804e00004003200c3eca90073
:101cc80024cea800c3cca80003003700c3cca900c9
:101cd80024eea800c3eca8006090800071908000fa
:101ce80032050700020020000322240043fc0700fd
:101cf8007efb070000007800306688002090800096
:101d080031908000290507000004be000090800083
:101d180011908000250507001ac0b3000001be001d
:101d28000800be004cfb07000000e0000100350081
:101d38000045eb000a04e0000300320078d0bf0041
:101d48007bf0b7000200370079d0bf007bf0b70006
:101d580024908000359080000090800011908000d1
:101d680018c0b3000001be000400be003afb070023
:101d78000000e000010035000044eb000804e0002a
:101d88000f00320008908000199080002a9080008f
:101d98003b9080007bd0bf000080fb00cf80de003e
:101da8006dfb07000001be000a00be0089fa0700ab
:101db8000801be002b05070020908800319088009c
:101dc8002490800035908000009080001190800061
:101dd80018c0b3000001be000400be0020fb0700cd
:101de8000000e00001003c000044eb000804e000b3
:101df8000f00320008908000199080002a9080001f
:101e08003b9080007bd0bf000080fb00cf80de00cd
:101e180051fb07000001be000a00be006cfa070073
:101e28000801be00f7040700209088003190880060
:101e3800209080003190800018c0b3006011b80075
:101e480007fb07000000e00001003c000044eb0035
:101e58000804e0000400320023cca90015eea80015
:101e680023eca8000300370023eca90015cea80036
:101e780023cca8002090800031908000cb0407007c
:101e88000200200003222400dcfb070017fb0700e8
:101e980000007800306188004f05be004f04be0086
:101ea8000080fa00000006001800fa008491800003
:101eb8009591800060928000719280000001be00c0
:101ec8000400be0042fa0700008fbe006292800044
:101ed80073928000220798003307980002002000c0
:101ee800833c24002e009000be009000c3fb070036
:101ef800020020008324240095fa07004007980078
:101f0800510798006491800075918000809280004c
:101f1800919280000001be000400be002cfa070068
:101f28006007980071079800829280009392800061
:101f3800020f9800130f980002002000a337240016
:101f48000e0890009e089000acfb070002002000dd
:101f5800831c24007efa0700200f9800310f980098
:101f68004e019000de0190002e089000be089000ff
:101f780018fa07004090880051908800409080002f
:101f88005190800004002000852c240002002000cd
:101f9800832c2c00cb0407004090880051908800c7
:101fa8004e019000de0190002e089000be089000bf
:101fb80007fa0700009088001190880000908000c0
:101fc8001190800004002000852c240002002000cd
:101fd800832c2c00bb040700009088001190880017
:101fe8000080fa00000006000000fa00c301a80003
:101ff8000080eb00e00e88000080eb00f00e880007
:10200800c1e1a8000080fa00000006000000fa0004
:10201800c305a8000080eb00e02e88000080eb00dc
:10202800f02e8800c1e5a8000080fa000000060034
:102038000800fa00889fbe008a9fbe004081800089
:1020480051818000a0818800b18188006081800072
:10205800718180008081880091818800300e800025
:102068008000eb00008fbe00500e80008000eb0067
:10207800c000dd00000020001e0f40005e974800f1
:10208800302e80008000eb00200798003107980070
:10209800502e80008000eb00c000dd000000200012
:1020a8002e019000be01900002004000838048008d
:1020b80020079800310798001e0078009e009000c5
:1020c800a5fa070072b32000937823004bfb0700a2
:1020d80040818800518188002e009000be00900049
:1020e8009dfa070072b3200093782b0043fb07008a
:1020f800608188007181880044818000558180005a
:10210800a0818000b18180000001be000400be00f3
:10211800aff90700c0818800d18188006481800000
:102128007581800080818000918180000001be005f
:102138000400be00a6f90700e0818800f18188004c
:10214800e4818000f5818000c0818000d181800019
:102158000001be000400be009df9070022972f0071
:10216800f3e82300faf9070002002000030824001e
:1021780022fb07000082880011828800c481800049
:10218800d5818000e0818000f18180000001be00df
:102198000400be008ff9070002002000030024009d
:1021a800ebf907002082880031828800c081800016
:1021b800d181800002002000a33724000ffb070014
:1021c8002091880031918800e0818000f1818000b1
:1021d80002002000a337240008fb07004091880074
:1021e80051918800249180003591800040918000b1
:1021f800519180000001be000400be0075f907007f
:102208000200200003002400d1f907006091880033
:1022180071918800008280001182800002002000f5
:10222800a3372400f5fa070080918800919188006f
:10223800a0918000b1918000c0918800d191880060
:10224800e0918000f191800000928800119288004e
:10225800209280003192800040928800519288003c
:10226800c8918000d99180006a9180007b9180009c
:102278004492800055928000008280001182800084
:102288000001be000400be0052f90700aef90700c5
:102298000001be000a00be00d8fa070002002000b4
:1022a800a3372400aaf907000001be000800be00f9
:1022b80048f90700a0918800b19188000892800031
:1022c800199280006a9180007b918000449280007e
:1022d8005592800000828000118280000001be00bb
:1022e8000400be003bf9070061fb07000001be00c7
:1022f8000a00be00c1fa070002002000a33724002c
:1023080093f907000001be000800be0031f907007c
:10231800e0918800f19188004492800055928000f5
:1023280000828000118280000001be000400be000f
:1023380028f90700209288003192880020928000b6
:102348003192800018c0b300b2fd2000930424002d
:10235800c3f907000000e00001003c000044eb0066
:102368000804e000070032002092800031928000cb
:10237800b2fd2000930c240015f907002092880074
:1023880031928800209280003192800018c0b300fa
:10239800b2fd200093042c00aff907000000e00014
:1023a800010035000044eb000804e000070032009b
:1023b8002092800031928000b2fd2000930c24000e
:1023c80004f9070020928800319288004f05be006a
:1023d8004f04be000080fa00000006001800fa0052
:1023e80030838000418380000001be008000eb0044
:1023f8000e00780043040700a0918000b19180008e
:102408000001be00410020000e00780024040700ef
:10241800e0918000f19180000001be008100200061
:102428000e0078001e040700209280003192800080
:102438000001be00c10020000e007800180407004b
:1024480060918000719180000001be0001012000b0
:102458000e0078001204070080918000919180009e
:102468000001be00410120000e0078000c040700a6
:102478000e017800810120001006200084fb07006f
:102488000080fa00000006001400fa003083800083
:10249800418380000001be008000eb000e00780040
:1024a8001804070080928000919280000001be000d
:1024b800410020000e007800f903070060928000b8
:1024c800719280000001be00810020000e0078009b
:1024d800f303070000908000119080000001be0007
:1024e800c10020000e007800ed0307004090800036
:1024f800519080000001be00010120000e0078000c
:10250800e70307000e0178004101200020062000a3
:102518005ffb07000080fa00000006000000fa00d8
:1025280013e1a90011e1a9001061a8001021a90078
:1025380081088000f0fc2f0000806000800888007f
:102548000a21ef000621ef002026200070088800ed
:1025580000a02500600888002142800080ff2f002d
:10256800008060000000a000204288000108a90047
:102578002108a80011e1a8000080fa000000060068
:102588000000fa0005e1a9000421a90000002000cc
:1025980081242400100007000068a9002068a80012
:1025a80005e1a8000080fa00000006000000fa001b
:1025b8001fe1a9001e21a90000002000a147240056
:1025c800790007000368a9002368a8001fe1a80094
:1025d8000080fa00000006000400fa00881f780056
:1025e800008fbe0021088000f0fc2f0000806000f2
:1025f800200888001e0178009e01900000682900cc
:1026080081c12400d2f8070018c0b30002f02f00df
:10261800f377240012f907000000e00001003c00f5
:102628000044eb000804e000540032002108800058
:10263800f0fc2f00008060000040a0002008880007
:102648001e0178009e0190000068290081c12400c5
:10265800bff807000200200003102400bcf80700a0
:1026680018c0b30002f02f00f3772400fcf807002d
:102678000000e00001003c000044eb000804e0001a
:102688003200320021088000f0fc2f00008060003a
:102698000050a000200888001e0178009e019000cc
:1026a8000068290081c12400a9f807000200200061
:1026b80003282400a6f8070018c0b30002f02f0072
:1026c800f3772400e6f807000000e00001003c0072
:1026d8000044eb000804e0001000320021088000ec
:1026e8000003200001007000200888001e01780007
:1026f8009e0190000068290081c1240094f8070019
:10270800020020000338240091f80700d6f80700db
:102718000000780010088800200037001e017800ab
:102728009e0190000068290081c1240088f80700f4
:10273800020020000328240085f80700caf80700d3
:102748000000780010088800140037001e01780087
:102758009e0190000068290081c124007cf80700d0
:10276800020020000310240079f80700bef80700d3
:102778000000780010088800080037001e01780063
:102788009e0190000068290081c1240070f80700ac
:10279800b5f8070000007800100888004f0478009a
:1027a8000080fa00000006000400fa00881f780084
:1027b800008fbe00f1088000f0fc2f000080600050
:1027c800f00888001e0178009e019000006829002a
:1027d80081c124005ef8070018c0b30002f02f0082
:1027e800f37724009ef807000000e00001003c0099
:1027f8000044eb000804e000540032002108800087
:10280800f0fc2f00008060000040a0002008880035
:102818001e0178009e0190000068290081c12400f3
:102828004bf80700020020000310240048f80700b6
:1028380018c0b30002f02f00f377240088f80700cf
:102848000000e00001003c000044eb000804e00048
:102858003200320021088000f0fc2f000080600068
:102868000050a000200888001e0178009e019000fa
:102878000068290081c1240035f807000200200003
:102888000328240032f8070018c0b30002f02f0014
:10289800f377240072f807000000e00001003c0014
:1028a8000044eb000804e00010003200210880001a
:1028b8000003200001007000200888001e01780035
:1028c8009e0190000068290081c1240020f80700bb
:1028d80002002000033824001df8070062f80700f2
:1028e8000000780010088800200037001e017800da
:1028f8009e0190000068290081c1240014f8070097
:10290800020020000328240011f8070056f80700e9
:102918000000780010088800140037001e017800b5
:102928009e0190000068290081c1240008f8070072
:10293800020020000310240005f807004af80700e9
:102948000000780010088800080037001e01780091
:102958009e0190000068290081c12400fcf707004f
:1029680041f8070000007800100888004f0478003c
:102978000080fa00000006000000fa006630ef0050
:102988006830ef000080fa00000006000400fa003a
:1029980038040700d6fb070010010700f8fe0700ff
:1029a80002ff070095040700fe0307008efd0700dd
:1029b80096fd07006000b8002091880031918800da
:1029c8006000b80040918800519188006000b8000c
:1029d80060918800719188006000b800809188003b
:1029e800919188006000b800a0918800b19188009a
:1029f8006000b800c0918800d19188006000b800dc
:102a0800e0918800f19188006000b8000092880089
:102a1800119288006000b8002092880031928800e6
:102a28006000b80040928800519288000000eb00d6
:102a3800000f780005003700ac0307002047980016
:102a48002e4090006bfa07001e0fe800c60307002f
:102a58009e0f5000f8ff3c00f4ff37000200fa0018
:102a6800004f78001e4178006107210082487800f5
:102a78000e0007000080fa00000006000a00fa00b5
:102a8800004f9800418f280006000900315f780048
:102a98007e00b1000e0178007100200000082000bf
:102aa800fbf907000080fa00000006000600fa00a3
:102ab80065072100954278003083800041838000bb
:102ac8004808de000042780030838000418380009f
:102ad8004008de0080417800308380004183800018
:102ae8004809dd004800de0000007100c808de006b
:102af80000417800308380004183800000407800e6
:102b0800054f7800144798002347980032479800eb
:102b1800404798000e017800510020000005200071
:102b2800dbf907000080fa00000006000000fa0048
:102b38001172800000002100008060000000e000a9
:102b4800040032007670ef0064cea8008aff070008
:102b58000100370064cea90076d0bf000080fb00da
:102b6800cf80de005201200003002000820f5000b9
:102b7800838f580092003e000006010015003700c0
:102b880020003700210037002b0037002c003700c9
:102b9800370037003800370043003700440037005b
:102ba8004e0037004f0037005900370084003700c7
:102bb8008300370082003700810037005600370055
:102bc80061003700620037006d0037006e00370083
:102bd800790037006630ef006830ef006000b80019
:102be80060928800719288006000b8008092880026
:102bf8009192880010c0b30076f0b700abff0700d1
:102c080071003700720007006f0037006000b800dd
:102c1800609288007192880000002000010824005a
:102c2800809288009192880030c0b30076f0b70097
:102c38009eff070064003700650007006200370048
:102c48000041eb0000002000011a2400a5fb07004a
:102c580012c0b30000002000010a2c00a1fb0700ed
:102c680050c0b30076f0b70090ff07005600370059
:102c780057000700540037000041eb000000200017
:102c8800010a2c0097fb070012c0b30000002000c7
:102c9800011a240093fb070070c0b30076f0b70058
:102ca80082ff070048003700490007004600370048
:102cb800b0fd200091042400609288007192880081
:102cc8006000b800809288009192880090c0b3009c
:102cd80076f0b70075ff07003b0037003c0007009f
:102ce80039003700b0fd200091042c006092880064
:102cf800719288006000b8008092880091928800e4
:102d0800b0c0b30076f0b70068ff07002e003700a8
:102d18002f0007002c0037000041eb0000002000c6
:102d2800011a24006ffb070012c0b3000000200046
:102d3800011a24006bfb070010c1b30076f0b7003e
:102d48005aff070020003700210007001e00370047
:102d58000041eb0000002000011a240061fb07007d
:102d680012c0b30000002000011f24005dfb070013
:102d780030c1b30076f0b7004cff070012003700ef
:102d880013000700100037000041eb00000020008e
:102d9800011f240053fb070012c0b30000002000ed
:102da800011a24004ffb070050c1b30076f0b700aa
:102db8003eff070004003700050007000200370047
:102dc8007670ef00000000000080fa0000000600a6
:102dd8000000fa000080fa00000006000000fa0077
:102de80021e3a9002143a80001198000f0cf2f009a
:102df80000806000001988002043a90001198000a4
:102e0800000e2000010070000019880011198000d0
:102e1800f0ff210000806000101988002343a800fb
:102e280011198000f0cf2f00008060001019880071
:102e38001119800030f82f00008060004001b300b5
:102e4800101988002203a9002223a90025e3a9005c
:102e5800f0c0b30024e3b70021198000f00f2e0062
:102e68008080600000f020000100700020198800b8
:102e78003303a9002e0ea8002f6ea8006f2ea800fd
:102e880030c3a8003163a8002e03a80041198000b0
:102e980000fc2f00008060004019880028e3a9008a
:102ea80001a8a90021a8a80021e3a8000080fa0031
:102eb800000006000000fa002023a8000080fa00a5
:102ec800000006000000fa00c00521000080fa009a
:102ed800000006000000fa0064d0bf000080fa007d
:102ee800000006000000fa006470ef000080fa009d
:102ef800000006000600fa00f6ff0700e14f500048
:102f080083003a00f7ff0700eeff0700000f780084
:102f18009e00780064804000100078008000eb007c
:102f280010f707003233230033052400b3f70700f6
:102f3800020020000358240085f60700d2cc2c009c
:102f4800c3042400adf70700100798002107980074
:102f58001e019000ae019000000020008120240096
:102f68007bf6070002002000030a240018f6070079
:102f780080908800919088001e80e80010007800fa
:102f88008000eb00f7f607003233230033052400f6
:102f98009af7070002002000035824006cf6070087
:102fa800d2cc2c00c304240094f707001007980023
:102fb800210798001e019000ae019000000020003b
:102fc8008120240062f6070002002000030a240082
:102fd800fff50700c0908800d19088001e00780097
:102fe800100078008000eb00def607003233230083
:102ff8003305240081f7070002002000035824004d
:1030080053f60700d2cc2c00c30424007bf707003a
:1030180010079800210798001e019000ae0190004b
:10302800000020008120240049f60700020020004b
:10303800030a2400e6f50700e0908800f190880074
:103048009e00780066804000100078008000eb0049
:10305800c4f60700323323003305240067f707005e
:10306800020020000358240039f60700d2cc2c00b7
:10307800c304240061f7070010079800210798008f
:103088001e019000ae019000000020008120240065
:103098002ff6070002002000030a2400ccf50700e1
:1030a80000918800119188009e0078006880400097
:1030b800100078008000eb00aaf6070032332300e6
:1030c800330524004df707000200200003582400b0
:1030d8001ff60700d2cc2c00c304240047f70700d2
:1030e80010079800210798001e019000ae0190007b
:1030f800000020008120240015f6070002002000af
:10310800030a2400b2f50700a0908800b190880057
:103118000080fa00000006001400fa00e090800029
:10312800f19080000001be008000eb000e007800e6
:10313800db000700c0908000d19080000001be0035
:10314800410020000e007800d50007008090800024
:10315800919080000001be00810020000e007800e0
:10316800cf00070000918000119180000001be008f
:10317800c10020000e007800c9000700a090800060
:10318800b19080000001be00010120000e0078000f
:10319800c30007000e017800410120000003200051
:1031a8003bf807000080fa00000006000400fa005f
:1031b800881f7800008fbe0018c0b3006011b800e7
:1031c8001e0078009e00900025f607000000e00031
:1031d80001003d000044eb000804e0000300320059
:1031e8001e0078009e009000030037001e00780043
:1031f8009e00900001f0a2004f0478000080fa00c1
:10320800000006000800fa00881f7800008fbe0042
:10321800220798003307980018c0b3002e019000c9
:10322800be0190001e0078009e0090000cf607007a
:103238000000e00001003c000044eb000804e0004e
:10324800030032001e0078009e0090000200370044
:103258002e009000be0090004f0478000080fa0015
:10326800000006000800fa00881f7800008fbe00e2
:10327800220798003307980018c0b3002e01900069
:10328800be0190001e0078009e009000f2f5070035
:103298000000e000010035000044eb000804e000f5
:1032a800030032001e0078009e00900002003700e4
:1032b8002e009000be0090004f0478000080fa00b5
:1032c800000006000c00fa00881f7800008fbe007e
:1032d800220798003307980044079800550798007c
:1032e80018c0b3004e019000de0190001e00780067
:1032f8009e009000daf507000000e00001003c00a5
:103308000044eb000804e000040032004e01900085
:10331800de019000028fbe000e00370018c0b30017
:103328002e019000be0190001e0078009e009000c3
:10333800c9f507000000e000010035000044eb007b
:103348000804e000030032002e019000be01900046
:10335800028fbe001e0078009e0090004f04780087
:103368000080fa00000006000400fa00008fbe008a
:10337800b2fd2000930424001e0078009e009000f7
:1033880073f5070002002000433324009bf6070072
:103398000080fa00000006000400fa00008fbe005a
:1033a800b2fd2000930424001e0078009e009000c7
:1033b80092f60700020020004333240064f507005a
:1033c8000080fa00000006000800fa0020079800b4
:1033d80031079800b2fd2000930424002e009000cd
:1033e800be009000faf40700b2fd2000930c240000
:1033f800def50700b2fd200093042400f5f4070071
:10340800008fbe00b2fd2000930424001e00780047
:103418009e009000eff40700b2fd2000930c2400fa
:10342800d2f50700b2fd200093042400e8f4070059
:103438000080fa00000006000a00fa003007980031
:1034480041079800be0090004e009000008f400099
:103458001e00780010017800900190001207980073
:10346800230798001e009000ae0090000080fa002c
:10347800000006000600fa001007980021079800cf
:103488009e0090002e009000008f40001e007800e3
:1034980090009000100078000080fa0000000600fc
:1034a8000c00fa002007980031079800420798009e
:1034b8005307980068004700100798000000eb00c9
:1034c800000f78000a0037003e0090001e00400000
:1034d800ae009000008040009e0078001e01900021
:1034e8008100410091407800014878001e0fe800f3
:1034f8001e007800e30f5000f3ff34000080fa004c
:10350800000006000c00fa00200798003107980018
:103518004207980053079800680047001007980072
:103528000000eb00000f78000b0037003e00900011
:103538001e004000ae0090000080400032002000d5
:103548009e0051001e0190008100410091407800ca
:10355800014878001e0fe8001e007800e30f5000b5
:10356800f2ff34000080fa00000006000c00fa00a8
:1035780020079800310798004207980053079800e1
:1035880068004700100798000000eb00000f780063
:103598000a0037003e0090001e004000ae00900078
:1035a800008040009e0078001e01900081004100cc
:1035b80091407800014878001e0fe8001e0078004e
:1035c800e70f5000f3ff34000080fa000000060007
:1035d8000600fa0010079800210798000040eb0049
:1035e800004f780041000700ae009000810f5000a6
:1035f800110034000040eb00004f7800060037004f
:103608001e80fb009e009000008040001040780063
:103618000b0007001e4fe8009e80fb002e00900064
:10362800808f5000f6ff35002c0007000004e000f2
:1036380001003a00200007000080fa0000000600a0
:103648000200fa00004f780060838000e107210043
:10365800808040009e4878000000e8006083880071
:103668006183800000082000808f500001003a002c
:103678006c30ef000080fa00000006000200fa003b
:1036880070838000e107210080804000114f78009e
:103698000000e80070838800718380000008200023
:1036a800808f500001003a006e30ef001e40780015
:1036b8000080fa00000006000200fa0010c0b30003
:1036c80070f0b700edff0700004f78001e80fb0088
:1036d800201188000080fa00000006000000fa00af
:1036e80070d0bf000080fa00000006000000fa0059
:1036f8000400070001082000008050000080fa0044
:10370800000006000000fa006183800070838000da
:10371800808f500004003500618380007083800032
:1037280000805000040037006183800070838000af
:10373800008050000008b0000080fa000000060079
:103748001c00fa00200f9800310f9800420f9800d3
:10375800530f98006066260061ee2300008fbe00bc
:1037680010ae270041f52300200798003107980084
:103778006000b80040079800510798002e0190009b
:10378800be0190001e0078009e00900070f40700b3
:1037980060079800710798004e019000de019000c4
:1037a8001e0078009e00900094f50700000f980016
:1037b800110f98000080fa00000006000400fa00cb
:1037c800889fbe00008fbe0040808000518080002e
:1037d80060808800718088002080800031808000af
:1037e80040808800518088001e0178009e0190006a
:1037f800228088003380880080808000918080004b
:10380800a0808800b18088002480800035808000f6
:10381800e0808000f18080000001be000400be004e
:1038280076f507000002be00a0808000b18080000d
:103838000001be000400be00e6f307000004be005d
:1038480044808000558080000081800011818000c4
:103858000001be000400be0068f507000001be00bc
:103868000800be00dbf307000004be00648080008f
:103878007580800020818000318180000001be00b9
:103888000400be005df507000001be000800be0090
:10389800d0f30700808088009180880080808000b5
:1038a800918080004f04be000080fa0000000600ee
:1038b8000200fa00004f780090838000e10f210099
:1038c800808040009e4878000000e80090838800cf
:1038d8009183800000082000808f500001003a008a
:1038e8007230ef000080fa00000006000200fa00c3
:1038f800a0838000e10f210080804000114f7800f4
:103908000000e800a0838800a18380000008200050
:10391800808f500001003a007430ef001e4078009c
:103928000080fa00000006000000fa009183800081
:10393800a0838000808f50000200320010c0b300c6
:10394800010037000040eb000080fa00000006008c
:103958000000fa0004000700010820000080500061
:103968000080fa00000006000000fa009183800041
:10397800a0838000808f500004003900918380006c
:10398800a0838000008050000400370091838000ed
:10399800a0838000008050000008b0000080fa007a
:1039a800000006000000fa002002a90001118000b2
:1039b80090ff2f00008060000011880020a2a9005d
:1039c8002062a800500520004011880023a2a90009
:1039d80023e2a9000188a9002188a800111180000c
:1039e800f0f32f0000806000101188000168a90022
:1039f8002168a80021e2a8002342a8000080fa005c
:103a0800000006000600fa00100798002107980039
:103a18000040eb00004f78000040eb00004f7800ba
:103a28000e00370000000000111180000020200067
:103a3800008060000000e000fbff3a001e009000dc
:103a4800104078000080fb00201188001e009000c4
:103a58000000e800100798001e4fe8009e80fb0059
:103a68002e009000808f5000eeff35000080fa0095
:103a7800000006000000fa000e2eef001e2eef00d8
:103a88002e2eef003e2eef004e2eef005e2eef00a2
:103a98006e2eef00214ea90060cea90060eea900ad
:103aa80011cea90011eea90020cea90020eea90090
:103ab8002136800000f82f00008060008001b300ec
:103ac800203688001134800000fc2f000080600040
:103ad8000000a000103488000136800000f82f0094
:103ae8008080600010062000010070000036880009
:103af80001368000f00f280080806000000026005a
:103b08000100700000368800e135800000f82f00c1
:103b1800808060006004200001007000e0358800ab
:103b2800e1358000f00f28008080600000502400fc
:103b380001007000e03588000080fa0000000600ef
:020000040000fa
:103b480076100000020000008000000066100000ef
:103b58000600000080000000fe1100005600000072
:103b680080000000781000000200000082000000c1
:103b7800030400007a10000002000000800000002a
:103b88005a1000000c000000800000007e100000a9
:103b980080000000800000006c100000060000009b
:103ba80080000000fe10000080000000800000007f
:103bb8007210000004000000800000007e11000068
:103bc8008000000080000000481000001200000083
:103bd8008000000028100000200000008000000085
:103be8000010000028000000800000007c10000089
:0c3bf8000200000080000000000000003f
:020000040000fa
:103c04000000fa00f0032000303a8800213a8000d6
:103c1400f0f32f0000806000203a8800213a8000f1
:103c240000fe2f00008060000000a000203a880001
:103c34001200200080072000a10920003374200016
:103c4400804978008149780082497800103a8000e0
:103c5400000178000200a00060042000710520002b
:103c640023742000804978008149780082497800d3
:103c740000000000113a80000000270080806000ee
:103c840000002100808f5000faff3a00000000007d
:103c9400113a800000022000008060000000e00073
:0c3ca400fbff32000080fa000000060068
:020000040000fa
:02000004000af0
:04afe000cfff00009f
:020000040000fa
:02000004000af0
:04afe400ffff00006b
:020000040000fa
:02000004000af0
:04afe8007fff0000e7
:020000040000fa
:02000004000af0
:04afec005fff000003
:020000040000fa
:02000004000af0
:04aff00038ff000026
:020000040000fa
:02000004000af0
:04aff400ffff00005b
:00000001FF
