:020000040000fa
:080000000002040000000000f2
:020000040000fa
:04000800e60300000b
:020000040000fa
:04000c00e603000007
:020000040000fa
:04001000e603000003
:020000040000fa
:04001400e6030000ff
:020000040000fa
:04001800e6030000fb
:020000040000fa
:04001c00e6030000f7
:020000040000fa
:04002000e6030000f3
:020000040000fa
:04002400e6030000ef
:020000040000fa
:04002800e6030000eb
:020000040000fa
:04002c00e6030000e7
:020000040000fa
:04003000e6030000e3
:020000040000fa
:0400340002030000c3
:020000040000fa
:04003800e6030000db
:020000040000fa
:04003c00e6030000d7
:020000040000fa
:04004000e6030000d3
:020000040000fa
:04004400e6030000cf
:020000040000fa
:04004800fa020000b8
:020000040000fa
:04004c00e6030000c7
:020000040000fa
:04005000e6030000c3
:020000040000fa
:04005400980300000d
:020000040000fa
:040058006e03000033
:020000040000fa
:04005c00400300005d
:020000040000fa
:04006000e6030000b3
:020000040000fa
:04006400e6030000af
:020000040000fa
:04006800e6030000ab
:020000040000fa
:04006c00e6030000a7
:020000040000fa
:04007000e6030000a3
:020000040000fa
:04007400e60300009f
:020000040000fa
:04007800e60300009b
:020000040000fa
:04007c00e603000097
:020000040000fa
:04008000e603000093
:020000040000fa
:04008400e60300008f
:020000040000fa
:04008800e60300008b
:020000040000fa
:04008c00e603000087
:020000040000fa
:04009000e603000083
:020000040000fa
:04009400280300003d
:020000040000fa
:04009800e60300007b
:020000040000fa
:04009c00e603000077
:020000040000fa
:0400a000e603000073
:020000040000fa
:0400a400e60300006f
:020000040000fa
:0400a800e60300006b
:020000040000fa
:0400ac00e603000067
:020000040000fa
:0400b000e603000063
:020000040000fa
:0400b400e60300005f
:020000040000fa
:0400b800e60300005b
:020000040000fa
:0400bc00e603000057
:020000040000fa
:0400c000e603000053
:020000040000fa
:0400c400e60300004f
:020000040000fa
:0400c800e60300004b
:020000040000fa
:0400cc00e603000047
:020000040000fa
:0400d000e603000043
:020000040000fa
:0400d400e60300003f
:020000040000fa
:0400d800e60300003b
:020000040000fa
:0400dc00e603000037
:020000040000fa
:0400e000e603000033
:020000040000fa
:0400e400e60300002f
:020000040000fa
:0400e800e60300002b
:020000040000fa
:0400ec00e603000027
:020000040000fa
:0400f000e603000023
:020000040000fa
:0400f400e60300001f
:020000040000fa
:0400f800e60300001b
:020000040000fa
:0400fc00e603000017
:020000040000fa
:04010000e603000012
:020000040000fa
:04010400e60300000e
:020000040000fa
:04010800e60300000a
:020000040000fa
:04010c00e603000006
:020000040000fa
:04011000e603000002
:020000040000fa
:04011400e6030000fe
:020000040000fa
:04011800e6030000fa
:020000040000fa
:04011c00e6030000f6
:020000040000fa
:04012000e6030000f2
:020000040000fa
:04012400e6030000ee
:020000040000fa
:04012800e6030000ea
:020000040000fa
:04012c00e6030000e6
:020000040000fa
:04013000e6030000e2
:020000040000fa
:04013400e6030000de
:020000040000fa
:04013800e6030000da
:020000040000fa
:04013c00e6030000d6
:020000040000fa
:04014000e6030000d2
:020000040000fa
:04014400e6030000ce
:020000040000fa
:04014800e6030000ca
:020000040000fa
:04014c00e6030000c6
:020000040000fa
:04015000e6030000c2
:020000040000fa
:04015400e6030000be
:020000040000fa
:04015800e6030000ba
:020000040000fa
:04015c00e6030000b6
:020000040000fa
:04016000e6030000b2
:020000040000fa
:04016400e6030000ae
:020000040000fa
:04016800e6030000aa
:020000040000fa
:04016c00e6030000a6
:020000040000fa
:04017000e6030000a2
:020000040000fa
:04017400e60300009e
:020000040000fa
:04017800e60300009a
:020000040000fa
:04017c00e603000096
:020000040000fa
:04018000e603000092
:020000040000fa
:04018400e60300008e
:020000040000fa
:04018800e60300008a
:020000040000fa
:04018c00e603000086
:020000040000fa
:04019000e603000082
:020000040000fa
:04019400e60300007e
:020000040000fa
:04019800e60300007a
:020000040000fa
:04019c00e603000076
:020000040000fa
:0401a000e603000072
:020000040000fa
:0401a400e60300006e
:020000040000fa
:0401a800e60300006a
:020000040000fa
:0401ac00e603000066
:020000040000fa
:0401b000e603000062
:020000040000fa
:0401b400e60300005e
:020000040000fa
:0401b800e60300005a
:020000040000fa
:0401bc00e603000056
:020000040000fa
:0401c000e603000052
:020000040000fa
:0401c400e60300004e
:020000040000fa
:0401c800e60300004a
:020000040000fa
:0401cc00e603000046
:020000040000fa
:0401d000e603000042
:020000040000fa
:0401d400e60300003e
:020000040000fa
:0401d800e60300003a
:020000040000fa
:0401dc00e603000036
:020000040000fa
:0401e000e603000032
:020000040000fa
:0401e400e60300002e
:020000040000fa
:0401e800e60300002a
:020000040000fa
:0401ec00e603000026
:020000040000fa
:0401f000e603000022
:020000040000fa
:0401f400e60300001e
:020000040000fa
:0401f800e60300001a
:020000040000fa
:0401fc00e603000016
:020000040000fa
:04020000e603000011
:020000040000fa
:04020400e60300000d
:020000040000fa
:04020800e603000009
:020000040000fa
:04020c00e603000005
:020000040000fa
:04021000e603000001
:020000040000fa
:04021400e6030000fd
:020000040000fa
:04021800e6030000f9
:020000040000fa
:04021c00e6030000f5
:020000040000fa
:04022000e6030000f1
:020000040000fa
:04022400e6030000ed
:020000040000fa
:04022800e6030000e9
:020000040000fa
:04022c00e6030000e5
:020000040000fa
:04023000e6030000e1
:020000040000fa
:04023400e6030000dd
:020000040000fa
:04023800e6030000d9
:020000040000fa
:04023c00e6030000d5
:020000040000fa
:04024000e6030000d1
:020000040000fa
:04024400e6030000cd
:020000040000fa
:04024800e6030000c9
:020000040000fa
:04024c00e6030000c5
:020000040000fa
:04025000e6030000c1
:020000040000fa
:04025400e6030000bd
:020000040000fa
:04025800e6030000b9
:020000040000fa
:04025c00e6030000b5
:020000040000fa
:04026000e6030000b1
:020000040000fa
:04026400e6030000ad
:020000040000fa
:04026800e6030000a9
:020000040000fa
:04026c00e6030000a5
:020000040000fa
:04027000e6030000a1
:020000040000fa
:04027400e60300009d
:020000040000fa
:04027800e603000099
:020000040000fa
:04027c00e603000095
:020000040000fa
:04028000e603000091
:020000040000fa
:10040000cf1d21000eff27000e0188000000000014
:10041000000020000000e000020032000001200087
:100420002002880014000700ea0007000000e00036
:1004300003003a00008c2100010020000200370078
:100440000000200001002000810f70000100320038
:100450000f000700000020000000e0000200320052
:1004600000000200000000008210020000000000f6
:100470000040da000000fe00800020000000e000e4
:1004800002003200002020009001880000000600d9
:10049000a1028800800478000000eb001f003700f4
:1004a000e284440054a0b4009905ba00e2844400f8
:1004b00054a0b4009906ba00e284440054a0b400e9
:1004c0000006eb00476fde00fd07b200ae018800ba
:1004d000636ce10003003a000ad801000000eb0061
:1004e0000e003700606ce10008003a00004deb00a0
:1004f0000a05e800020039003420ec000af0a000f0
:100500008b05e900f9ff3e00040037006168e10057
:10051000010032000086eb000b00070019c7ba008b
:100520000e04e0001905ba0003003a000a00e000da
:10053000dbff3a0000000600fe07b200ae028800b2
:100540008a047800f5ff37000cd0a300e20f4d00bd
:100550001c00390089027800354dba000a05e80010
:10056000020039003420ec000af0a0008b05e900fd
:100570000f003200254dba000a05e80002003900dc
:100580003420ec000af0a0008b05e90008003200de
:100590000c00e0000600320015cdba000a05e800a4
:1005a000020039003420ec000af0a0008b05e900bd
:1005b0008984e80054a0b4000b00e000e2ff3a0098
:1005c000000006009902ba00055d78008b05e9007d
:1005d000f7ff3200c82ade00055d78008b05e900d0
:1005e000f3ff32000c00e000f1ff320019ddba0029
:1005f000eeff37000000fa000108a9000080fa00b1
:10060000004006003600f800809fbe00829fbe00ba
:10061000849fbe00869fbe000000fa000068a9000b
:10062000e5070700f40707007c080700fd06070040
:10063000b80407000080fa004f03be004f02be005e
:100640004f01be004f00be003600f900004006001a
:10065000809fbe000000fa000368a900f0808000bf
:100660000181800061004000e0804800f080880047
:10067000018188000080fa004f00be0000400600a3
:10068000809fbe000000fa0001a8a90001188000a8
:10069000400121000108780011188000400121006c
:1006a00011009800211880004001210021009800cd
:1006b000311880004001210031009800411880006d
:1006c000400121004100980010c0b3001cf0b700a9
:1006d0000080fa004f00be00004006003600f8001f
:1006e000809fbe00829fbe00849fbe00869fbe008a
:1006f0000000fa000188a90031818000208180007b
:10070000808f500002003200ac0907000100370062
:100710002870ef000080fa004f03be004f02be00b9
:100720004f01be004f00be003600f9000040060039
:100730003600f800809fbe00829fbe00849fbe00ee
:10074000869fbe000000fa000168a9001011800019
:10075000640060000000e000010032002242a900b5
:1007600010118000620060000000e0000100320013
:100770002222a90010118000680060000000e00043
:10078000060032002262a900050037003011800007
:1007900000407800ab0907000100370000000000ae
:1007a00010118000610060000000e000f7ff3a00d7
:1007b0000080fa004f03be004f02be004f01be0092
:1007c0004f00be003600f900004006000040da008d
:1007d0000000fe000000050003f0a200889fbe009c
:1007e0008a9fbe008c1f78006c01070073013300e4
:1007f0006450e1004f0032006420e10052003200fa
:1008000003826c0007003b000905d0000306d000fe
:10081000820f54000c065d00020039000200320015
:1008200089017800030678008582550004003d00a8
:100830000003fd008103fd008502ea008b85420074
:10084000840f720002003b0060001000e08018007e
:100850006011b8000005eb007a28e1000a003900b9
:1008600006007800c75ddd00f707b20087807500dd
:100870002d003700828171000a0178006105600057
:100880008180d1000080d3008502e900f9ff3b00a0
:10089000060440008784480002003b006004140006
:1008a000e0841c000988a300070032008a817100df
:1008b00082817100610164008904d1000884d30041
:1008c0008b05e800170037000978a30013003a00f1
:1008d0000b00e000130034008b05e900080444001d
:1008e00089844c000a4474000978a3000d003a0082
:1008f0000b00e000070034008b05e9000804440009
:1009000089844c0001003a000b0020000978a30004
:10091000f7ff32000001eb00020037008281710016
:100920000a017800e20007000cf0a70001f0a00027
:100930002b0137006420e10002003a00838f6c0035
:100940002b0133000801be000200be002401370065
:10095000889fbe008a9fbe008c1f78000f01070091
:100960001601330003866c006450e1002e00320053
:100970006420e100330032006150e1002f003200ba
:100980006120e1003100320085855500eb07b000a1
:100990000900200008042000050037000804440076
:1009a00089844c000a0031000603430087834b0012
:1009b0000001530081815b00f8ff33000203be0099
:1009c0000800a0000804440089844c00f6ff3900a8
:1009d000c639dd00830173000100320013002000de
:1009e0008904d1000884d3000998a30005003200cf
:1009f0000800a7000300a0008904d1000884d300e8
:100a00008b05e8008904d1000884d3000001eb00c5
:100a10000281d200a600070001f0a1000cf0a7009f
:100a200001f0a000ee0037006420e100f000320089
:100a30000801be000200be00f7ff37006120e100a0
:100a4000eb0032006000b800f3ff37000000200028
:100a500001f82700f0ff3700140020001b013700c9
:100a6000f4ff2f00190137000001be00b600070097
:100a70000470a70003f0a1006509b1001600320060
:100a80000d0035006828e10006003500f0ff2f005a
:100a9000f1ff27000300e00013003b0001002800e5
:100aa0000000050000004000818048008502e90048
:100ab000fcff3a0008003700f88f420002003c00bb
:100ac0008000eb00000005008100d1000080d30011
:100ad0008502e800fcff3a000300e00002003b0052
:100ae00060001000e0801800000006000001be0059
:100af000950007000470a70003f0a10003f8a3000d
:100b000013003a006509b1001000320009003500f9
:100b10006928e100020035000100280000000500fe
:100b200000004000818048008502e900fcff3a0097
:100b300000000600f88f4200050035008100d1005a
:100b40000080d3008502e800fcff3a0000000600a8
:100b50008000eb00000005004f89de008201780074
:100b6000f50037006011b8000301370004002000d1
:100b700000003700889fbe008a9fbe008c1f78004f
:100b80004f26dd00850007008c0033006120e10066
:100b9000430032006250e10041003e003e00390057
:100ba0006420e1003c003200058255000f003b004c
:100bb0000402e80038003a00800f5300818f5b0088
:100bc000350034000800be0003f0a10001f0a600cb
:100bd00003f0a0000cf0a70000ff07008000370022
:100be0000603430087834b000c4646000005530074
:100bf00081855b00020033000a03be000c00a000e8
:100c00000402e900f6ff3b00850578000602430078
:100c100087824b0004003a006000b80009f0a7008a
:100c200001f0a0006e0037000002520081825a00dd
:100c30000704e000040033000603430087834b00f1
:100c40008b05e900faff3700090578000604be00ad
:100c50000203be006011b80015000700e00f52004b
:100c6000e08f5a000700350002003c000c08a3008a
:100c7000040032000601be0003f0a0000cf0a70043
:100c8000d6fe07000a85680001f0a1000af0a7005f
:100c900001f0a000520037000800be0050003700ed
:100ca000100220000cf0a600a08188005000370040
:100cb00081002000618055000b003d000b002000ea
:100cc00061fe2f000100e1001d00340082817100ef
:100cd000610164008904d1000884d3000000e800a9
:100ce000faff3a0071002000610064000300700008
:100cf000020060000900320061044400e0844c00fe
:100d00000988a500050032008b05e8006808e100ad
:100d100002003a008904d1000884d300f20f2000b9
:100d20000258e10005003d00c75ddd00f907b20093
:100d30008980750008007800000006000bf8270085
:100d40008b00780000000500c70ade00f107b20042
:100d5000f50fb20008003200e1cf4200020032007d
:100d60000170a00024000500810f70000100320016
:100d70000408050044000500810f700002003a00dd
:100d8000140005008502e9000000400081c0480011
:100d9000fcff3b000170a000240005000004be0021
:100da000e9ff07000003be000405be000200be000c
:100db000e5ff0700844f7500000006000200be003a
:100dc0006450e100050036006420e10002003600b6
:100dd0000968a30001003a000800be000160a000fd
:100de0004f0678004f05be004f04be00000006000d
:100df000f0ff2f00f1ff2700f9ff3700889fbe00aa
:100e00008a9fbe008c1f7800e4ff0700ebff3300d1
:100e100003866c006450e100240032006420e1008d
:100e2000270032006150e100220032006120e10021
:100e3000210032008b854200eb07b1000134b8007d
:100e4000003ab8000804420089844a00013ab80018
:100e50000030b8008880400009014a0004003300d7
:100e60000000400081804800020149008b05e90034
:100e7000c909dd0083017000010032001300200069
:100e8000c814de004814dd004709de001200b2007d
:100e9000c808de000884700085ff070001f0a1008b
:100ea0000cf0a70001f0a000cdff37006120e100a9
:100eb000cfff32000801be000200be00f7ff37007e
:100ec0006150e100fcff3a00c9ff3700889fbe0077
:100ed0008a9fbe00841f7800b0ff07004f00780093
:100ee00011003300f0ff2f00838f6c0006003b00e1
:100ef000040565000a00a7000800370009f0a600f5
:100f00001000200008003700820f5400838f5c001f
:100f1000030039001000200001003e000000200006
:100f200009f0a7000000ea004f05be004f04be0014
:100f30000000e00000000600881f7800030478002d
:100f40000300e00007003d0060001000e080180092
:100f500060011900e081190002003b0001f02d0042
:100f6000030037000400070008f0a70001f0a0000c
:100f70004f04780000000600889fbe008a9fbe00d4
:100f800000827000040271000482710026003200a9
:100f90000004be000200be006011b8006b09200012
:100fa000950220000182cf000a0039000541b100fe
:100fb0000082cf00070039000541b1000982cf004f
:100fc000040039000541b1000882cf00010039005a
:100fd0000541b10005425200120032000a003b00f8
:100fe00082817100610164008100d1000080d30022
:100ff0008984d3000884d3008b05e8000442e8000c
:10100000f7ff3a00070037000804440089844c00c9
:1010100000004800818048008b05e9000442e90097
:10102000f9ff3a0022ff07004f05be004f04be0043
:0410300000000600b6
:020000040000fa
:10103400426f00006e6a00006f75000072000000cd
:020000040000fa
:101044000a00fa0020079800310798004207980028
:101054000040eb00004f7800e0cfb3001e4f680063
:101064002e0090004800dd00004078001e4f68000c
:101074002e009000004078001e4f68003e00900053
:101084004800dd00004078001e4f68003e009000dc
:10109400004078001e4f68000000eb001007980025
:1010a400080037001e009000ce0090000080400031
:1010b400104078001e4f68001e0090000000e800f9
:1010c400100798009e0090003e009000808f500012
:1010d400f4ff35001e4078000080fa00000006008e
:1010e4000e00fa00889fbe00400798005107980040
:1010f400620798000f0478000f00780080047800dd
:101104005e009000660040008000e900210798001e
:101114000000e8000000e8000000d100800040006a
:101124000f007800818747000000e8000000d1002c
:1011340000004000300798000000eb00000f78002a
:101144003e0090001e004000e1cfb300014878004b
:101154001e0fe8004e0090004880de0080407800ba
:101164003e0090001e004000014878001e0fe80079
:101174004e009000804078003e0090001e00400029
:10118400014878001e0fe8005e0090004880de00f1
:10119400804078003e0090001e0040000148780026
:1011a4001e0fe8005e009000804078003e00900032
:1011b4001e004000014878001e0fe8000000eb000c
:1011c400100798000b0037001e009000ee009000fe
:1011d40000804000904078003e0090001e004000d7
:1011e400014878001e0fe8001e0090000000e8008f
:1011f400100798009e0090005e009000808f5000c1
:10120400f1ff35006e019000de0090004e0090006a
:101214008bff0700be0090009e804000804878004d
:101224001e0fe8003e0090009e007800a80607000c
:1012340089077800880778004f04be000080fa0010
:10124400000006000200fa00004f780000808000d1
:10125400e30f500023003200e30f500007003c006e
:10126400e10f500012003200e10f500016003c0064
:101274000000e0000800320058003700e50f50007d
:1012840032003200e50f50001c003500e60f50001c
:101294003b003200510037001e407800e24f40000e
:1012a40051003a00100020000080880051003700ef
:1012b4001e80fb004800dd003080880020002000f4
:1012c400008088004b0037009e80fb003080800047
:1012d40000804000308088003000200000808800ba
:1012e400440037001e80fb004800dd004080880079
:1012f40040002000008088003e0037009e80fb00f4
:101304004080800000804000408088004080800051
:101314000000e00003003a00600020000080880024
:101324003400370041808000f00f2000808f50008f
:10133400020034000030ef002e003700500020007f
:10134400008088000a30ef002a00370050808000b7
:1013540061132100808040009e4878000000e8006e
:10136400508088005180800040808000808f500031
:101374001f00350060002000008088001d00370039
:101384001e417800c100210082487800418080001d
:10139400308080006213210029ff07000df0b700a0
:1013a400d1002100914078000cd0bf0080cf5000c4
:1013b40007003a00100020007080880041808000ff
:1013c40030808000621321000c0007000100370008
:1013d4000e30ef000030ef00060037000030ef0061
:1013e4000000000003003700000000000100370087
:1013f400000000000080fa00000006000600fa0069
:10140400000f780011079800220798001e0078004a
:1014140001052000810f50009d00320001052000cd
:10142400810f50000a003c0001032000810f50008e
:10143400a400320001042000810f50007900320022
:1014440001022000810f50000f003200a00037007d
:1014540021052000810f5000950032002105200055
:10146400810f50008e00350001082000810f5000cc
:1014740097003a0041808000308080006213210090
:1014840017ff070092003700601321001040780016
:101494000080fb00e10f500023003200e20f5000f7
:1014a400400032000000e00088003a007013210080
:1014b40010407800e14f50000b003e0070132100f3
:1014c40010407800614060000080fb006100600013
:1014d4004600dd00217380000160a100010070005e
:1014e400207388000f00370021738000000420005f
:1014f4000080600000f0a7000000ea000000e9009e
:101504004f00de00004078000080fb0061006000b6
:101514004600dd00217380000160a100010070001d
:10152400207388003e0037007013210010407800bb
:10153400e14f50000b003e00701321001040780072
:10154400614060000080fb00610060004700dd0036
:10155400217380000170a1000100700020738800d5
:101564000f00370021738000000820000080600015
:1015740000f0a7000000ea000000e9004f00de00d0
:10158400004078000080fb00610060004700dd003f
:10159400217380000170a100010070002073880095
:1015a4001f0037007013210010407800e14f5000f5
:1015b4000b003e0070132100104078006140600071
:1015c4000080fb00610060004a00dd0021718000a2
:1015d40001a0a10001007000207188000f003700f5
:1015e40021718000004020000080600000f0a7000e
:1015f4000000ea000000e9004f00de00004078002f
:101604000080fb00610060004a00dd002171800061
:1016140001a0a100010070002071880000000000fa
:101624002b00370060132100104078000080fb007d
:101634008000eb004afd070002002000832c2400f8
:10164400edfd070002002000f3372400bffc070073
:1016540012c0b3009d0007007013210010407800f1
:101664000080fb008000eb003dfd0700020020002d
:10167400832c2400e0fd070002002000f33724003f
:10168400b2fc07000041eb00900007001000370097
:101694006013210010407800ad0207000c003700f1
:1016a4006013210010407800a902070008003700e9
:1016b4006013210010407800ad0207000000000014
:1016c40003003700000000000100370000000000a4
:1016d4000080fa00000006000000fa00116080009b
:1016e40080ff2f00008060001060880000fa200056
:1016f4002060880023aca800238ca800116180001e
:10170400f03f2f000080600000a0a000106188005e
:101714003000200020618800c3aca800c38ca8005e
:1017240011668000f03f2f000080600000a0a00040
:1017340010668800300020002066880001eca800b4
:101744000080fa00000006000600fa00881f7800f6
:10175400008fbe00424798004e409000e14f500079
:101764002c003a0018c0b3006011b8001e007800c5
:101774009e009000b9fc07000000e00001003c005e
:101784000044eb000804e000110032001e01780060
:101794009e019000e28d8800f38d880023cca9007f
:1017a40015eea80023eca800e08d8000f18d8000e8
:1017b40002002000032224008ffd07003b040700e1
:1017c400c9fc070000007800306188003c00370045
:1017d4001e0178009e019000e28d8800f38d880040
:1017e40023eca90015cea80023cca800e08d80002e
:1017f400f18d800002002000032224007efd0700fa
:101804002a040700b8fc0700000078003061880053
:101814002b00370018c0b3006011b8001e00780018
:101824009e0090008bfc07000000e00001003500e2
:101834000044eb000804e000110032001e017800af
:101844009e019000228e8800338e8800c3cca900ac
:1018540024eea800c3eca800208e8000318e800006
:10186400020020000322240063fd07000f04070088
:101874009dfc0700000078003066880010003700e7
:101884001e0178009e019000228e8800338e88000d
:10189400c3eca90024cea800c3cca800208e8000ed
:1018a400318e8000020020000322240052fd070034
:1018b400fe0307008cfc07000000780030668800f7
:1018c4004f0478000080fa00000006000600fa00c9
:1018d400008fbe00424798004e409000e14f5000f8
:1018e40005003a001e0178009e019000c28d880018
:1018f400d38d8800040037001e0178009e019000fb
:10190400028e8800138e88000080fa000000060012
:101914000000fa00889fbe008a9fbe0011728000fa
:1019240000002100008060000000e000060032009a
:1019340012c0b3006000b800e4ff07000041eb00f0
:101944006000b800e1ff0700208e8000318e800027
:10195400d60307000004be00008e8000118e8000b4
:10196400d20307001ac0b3000001be000800be0085
:1019740038fc07000000e000010035000045eb00e2
:101984000a04e0000300320030d0bf0032f0b70098
:101994000200370031d0bf0032f0b700248e80003f
:1019a400358e8000008e8000118e800018c0b30038
:1019b4000001be000400be0026fc07000000e00099
:1019c400010035000044eb000804e0000f00320081
:1019d400088e8000198e80002a8e80003b8e800045
:1019e40032d0bf000080fb00cf80de0059fc07002e
:1019f4000001be000a00be0077fb07000801be001c
:101a0400d8030700208e8800318e8800248e800041
:101a1400358e8000008e8000118e800018c0b300c7
:101a24000001be000400be000cfc07000000e00042
:101a340001003c000044eb000804e0000f00320009
:101a4400088e8000198e80002a8e80003b8e8000d4
:101a540032d0bf000080fb00cf80de003dfc0700d9
:101a64000001be000a00be005afb07000801be00c8
:101a7400a4030700208e8800318e8800208e800009
:101a8400318e800018c0b3006011b800f3fb07006a
:101a94000000e00001003c000044eb000804e0000a
:101aa40004003200c3eca90024cea800c3cca800d3
:101ab40003003700c3cca90024eea800c3eca8009f
:101ac400208e8000318e8000780307000200200001
:101ad40003222400c8fc070003fc07000000780070
:101ae40030668800e08d8000f18d80006f03070070
:101af4000004be00c08d8000d18d80006b03070000
:101b04001ac0b3000001be000800be00d1fb0700ec
:101b14000000e000010035000045eb000a04e0008d
:101b24000300320030d0bf0033f0b70002003700aa
:101b340031d0bf0033f0b700e48d8000f58d800014
:101b4400c08d8000d18d800018c0b3000001be009c
:101b54000400be00bffb07000000e00001003500e8
:101b64000044eb000804e0000f003200c88d800040
:101b7400d98d8000ea8d8000fb8d800033d0bf00ba
:101b84000080fb00cf80de00f2fb07000001be00f6
:101b94000a00be0010fb07000801be007103070025
:101ba400e08d8800f18d8800e48d8000f58d800043
:101bb400c08d8000d18d800018c0b3000001be002c
:101bc4000400be00a5fb07000000e00001003c008b
:101bd4000044eb000804e0000f003200c88d8000d0
:101be400d98d8000ea8d8000fb8d800033d0bf004a
:101bf4000080fb00cf80de00d6fb07000001be00a2
:101c04000a00be00f3fa07000801be003d03070006
:101c1400e08d8800f18d8800e08d8000f18d8000da
:101c240018c0b3006011b8008cfb07000000e0008e
:101c340001003c000044eb000804e0000400320012
:101c440023cca90015eea80023eca800030037005c
:101c540023eca90015cea80023cca800e08d8000b9
:101c6400f18d8000110307000200200003222400ec
:101c740061fc07009cfb07000000780030618800cd
:101c84004f05be004f04be000080fa0000000600ad
:101c94000000fa0013e1a90011e1a9001061a800f5
:101ca4001021a90081088000f0fc2f000080600052
:101cb400800888000a21ef000621ef00202620007a
:101cc4007008880000a02500600888002142800078
:101cd40080ff2f00008060000000a00020428800e8
:101ce4000108a9002108a80011e1a8000080fa0059
:101cf400000006000000fa0005e1a9000421a90083
:101d04000000200081242400100007000068a900be
:101d14002068a80005e1a8000080fa000000060081
:101d24000000fa001fe1a9001e21a9000000200004
:101d3400a1472400790007000368a9002368a800cc
:101d44001fe1a8000080fa00000006000400fa0069
:101d5400881f7800008fbe0021088000f0fc2f004f
:101d640000806000200888001e0178009e01900019
:101d74000068290081c12400f4fa070018c0b300e8
:101d840002f02f00f377240034fb07000000e0008a
:101d940001003c000044eb000804e0005400320061
:101da40021088000f0fc2f00008060000040a000ab
:101db400200888001e0178009e0190000068290018
:101dc40081c12400e1fa070002002000031024006e
:101dd400defa070018c0b30002f02f00f3772400e6
:101de4001efb07000000e00001003c000044eb0083
:101df4000804e0003200320021088000f0fc2f00cb
:101e0400008060000050a000200888001e017800b7
:101e14009e0190000068290081c12400cbfa0700cc
:101e24000200200003282400c8fa070018c0b300e9
:101e340002f02f00f377240008fb07000000e00005
:101e440001003c000044eb000804e00010003200f4
:101e54002108800000032000010070002008880091
:101e64001e0178009e0190000068290081c12400b1
:101e7400b6fa07000200200003382400b3fa070072
:101e8400f8fa0700000078001008880020003700e6
:101e94001e0178009e0190000068290081c1240081
:101ea400aafa07000200200003282400a7fa07006a
:101eb400ecfa0700000078001008880014003700ce
:101ec4001e0178009e0190000068290081c1240051
:101ed4009efa070002002000031024009bfa07006a
:101ee400e0fa0700000078001008880008003700b6
:101ef4001e0178009e0190000068290081c1240021
:101f040092fa0700d7fa070000007800100888004a
:101f14004f0478000080fa00000006000400fa0074
:101f2400881f7800008fbe00f1088000f0fc2f00ad
:101f340000806000f00888001e0178009e01900077
:101f44000068290081c1240080fa070018c0b3008a
:101f540002f02f00f3772400c0fa07000000e0002d
:101f640001003c000044eb000804e000540032008f
:101f740021088000f0fc2f00008060000040a000d9
:101f8400200888001e0178009e0190000068290046
:101f940081c124006dfa0700020020000310240010
:101fa4006afa070018c0b30002f02f00f377240088
:101fb400aafa07000000e00001003c000044eb0026
:101fc4000804e0003200320021088000f0fc2f00f9
:101fd400008060000050a000200888001e017800e6
:101fe4009e0190000068290081c1240057fa07006f
:101ff400020020000328240054fa070018c0b3008c
:1020040002f02f00f377240094fa07000000e000a8
:1020140001003c000044eb000804e0001000320022
:1020240021088000000320000100700020088800bf
:102034001e0178009e0190000068290081c12400df
:1020440042fa070002002000033824003ffa070088
:1020540084fa070000007800100888002000370088
:102064001e0178009e0190000068290081c12400af
:1020740036fa0700020020000328240033fa070080
:1020840078fa070000007800100888001400370070
:102094001e0178009e0190000068290081c124007f
:1020a4002afa0700020020000310240027fa070080
:1020b4006cfa070000007800100888000800370058
:1020c4001e0178009e0190000068290081c124004f
:1020d4001efa070063fa0700000078001008880061
:1020e4004f0478000080fa00000006000000fa00a7
:1020f4001e30ef002030ef000080fa0000000600e0
:102104000400fa00bf03070073fd0700f300070093
:10211400f8fe070002ff0700ed0307008503070030
:102124000000eb00000f78000500370053030700a0
:10213400204798002e40900042fc07001e0fe80044
:102144006d0307009e0f5000f8ff3c00f4ff3700ba
:102154000200fa00004f78001e417800e1022100dd
:10216400824878000e0007000080fa000000060094
:102174000a00fa00004f9800a18128000600090017
:10218400315f78007e00b1000e01780071002000fc
:1021940000082000d2fb07000080fa0000000600bf
:1021a4000600fa00e502210095427800f0808000e4
:1021b400018180004808de0000427800f080800041
:1021c400018180004008de0080417800f0808000ba
:1021d400018180004809dd004800de000000710034
:1021e400c808de0000417800f08080000181800092
:1021f40000407800054f7800144798002347980062
:1022040032479800404798000e01780051002000a2
:1022140000052000b2fb07000080fa000000060061
:102224000000fa00117280000000210000806000ac
:102234000000e000040032002e70ef0064cea8001d
:10224400aaff07000100370064cea9002ed0bf000a
:102254000080fb00cf80de0052012000030020003c
:10226400820f5000838f580095003e000006010045
:102274001500370020003700210037002c003700fc
:102284002d0037003800370039003700440037008c
:102294004500370050003700510037005c0037001c
:1022a4008700370086003700850037008400370038
:1022b40059003700640037006500370070003700ac
:1022c400710037007c0037001e30ef002030ef0033
:1022d4000041eb006000b8007cfd070012c0b300b1
:1022e4006000b80079fd070010c0b3002ef0b700fd
:1022f400abff070074003700750007007200370059
:102304000041eb0000002000012224006ffd0700c3
:1023140012c0b30000002000012224006bfd07005e
:1023240030c0b3002ef0b7009dff070066003700f1
:1023340067000700640037000041eb000000200044
:10234400011a240061fd070012c0b3000000200040
:10235400010a2c005dfd070050c0b3002ef0b70049
:102364008fff070058003700590007005600370058
:102374000041eb0000002000010a2c0053fd07007f
:1023840012c0b30000002000011a24004ffd070012
:1023940070c0b3002ef0b70081ff07004a00370079
:1023a4004b000700480037000041eb00000020000c
:1023b4000115240045fd070012c0b30000002000f1
:1023c40001152c0041fd070090c0b3002ef0b700aa
:1023d40073ff07003c0037003d0007003a00370058
:1023e4000041eb000000200001152c0037fd070020
:1023f40012c0b300000020000115240033fd0700c3
:10240400b0c0b3002ef0b70065ff07002e00370000
:102414002f0007002c0037000041eb0000002000d3
:10242400011a240029fd070012c0b3000000200097
:10243400011a240025fd070010c1b3002ef0b700d7
:1024440057ff070020003700210007001e00370057
:102454000041eb0000002000011a24001bfd0700ce
:1024640012c0b30000002000011f240017fd070064
:1024740030c1b3002ef0b70049ff07001200370047
:1024840013000700100037000041eb00000020009b
:10249400011f24000dfd070012c0b300000020003e
:1024a400011a240009fd070050c1b3002ef0b70043
:1024b4003bff070004003700050007000200370057
:1024c4002e70ef00000000000080fa0000000600fb
:1024d4000000fa000080fa00000006000000fa0084
:1024e40021e3a9002143a80001198000f0cf2f00a7
:1024f40000806000001988002043a90001198000b1
:10250400000e2000010070000019880011198000dd
:10251400f0ff210000806000101988002343a80008
:1025240011198000f0cf2f0000806000101988007e
:102534001119800030f82f00008060004001b300c2
:10254400101988002203a9002223a90025e3a90069
:10255400f0c0b30024e3b70021198000f00f2e006f
:102564008080600000f020000100700020198800c5
:102574003303a9002e0ea8002f6ea8006f2ea8000a
:1025840030c3a8003163a8002e03a80041198000bd
:1025940000fc2f00008060004019880028e3a90097
:1025a40001a8a90021a8a80021e3a8000080fa003e
:1025b400000006000000fa002023a8000080fa00b2
:1025c400000006000000fa00400121000080fa002b
:1025d400000006000000fa001cd0bf000080fa00d2
:1025e400000006000000fa001c70ef000080fa00f2
:1025f400000006000600fa00f6ff0700e14f500055
:1026040083003a00f7ff0700eeff0700000f780091
:102614009e00780064804000100078008000eb0089
:102624004ff907003233230033052400f2f9070081
:102634000200200003582400c4f80700d2cc2c0068
:10264400c3042400ecf90700100798002107980040
:102654001e019000ae0190000000200081202400a3
:10266400baf8070002002000030a240059f8070002
:10267400408e8800518e88001e80e800100078008b
:102684008000eb0036f907003233230033052400c1
:10269400d9f907000200200003582400abf8070012
:1026a400d2cc2c00c3042400d3f9070010079800ef
:1026b400210798001e019000ae0190000000200048
:1026c40081202400a1f8070002002000030a24004e
:1026d40040f80700808e8800918e88001e007800e4
:1026e400100078008000eb001df90700323323004e
:1026f40033052400c0f90700020020000358240019
:1027040092f80700d2cc2c00c3042400baf90700c5
:1027140010079800210798001e019000ae01900058
:10272400000020008120240088f807000200200017
:10273400030a240027f80700a08e8800b18e8800c1
:102744009e00780066804000100078008000eb0056
:1027540003f907003233230033052400a6f90700e8
:10276400020020000358240078f80700d2cc2c0083
:10277400c3042400a0f9070010079800210798005b
:102784001e019000ae019000000020008120240072
:102794006ef8070002002000030a24000df8070069
:1027a400c08e8800d18e88009e007800688040002a
:1027b400100078008000eb00e9f8070032332300b2
:1027c400330524008cf9070002002000035824007c
:1027d4005ef80700d2cc2c00c304240086f907005d
:1027e40010079800210798001e019000ae01900088
:1027f400000020008120240054f80700020020007b
:10280400030a2400f3f70700608e8800718e8800a5
:102814000080fa00000006001400fa00a08e800078
:10282400b18e80000001be008000eb000e00780035
:10283400db000700808e8000918e80000001be00c6
:10284400410020000e007800d5000700408e800073
:10285400518e80000001be00810020000e0078002f
:10286400cf000700c08e8000d18e80000001be0022
:10287400c10020000e007800c9000700608e8000af
:10288400718e80000001be00010120000e0078005e
:10289400c30007000e01780041012000000320005e
:1028a4000ffa07000080fa00000006000400fa0096
:1028b400881f7800008fbe0018c0b3006011b800f4
:1028c4001e0078009e00900064f807000000e000fd
:1028d40001003d000044eb000804e0000300320066
:1028e4001e0078009e009000030037001e00780050
:1028f4009e00900001f0a2004f0478000080fa00ce
:10290400000006000800fa00881f7800008fbe004f
:10291400220798003307980018c0b3002e019000d6
:10292400be0190001e0078009e0090004bf8070046
:102934000000e00001003c000044eb000804e0005b
:10294400030032001e0078009e0090000200370051
:102954002e009000be0090004f0478000080fa0022
:10296400000006000800fa00881f7800008fbe00ef
:10297400220798003307980018c0b3002e01900076
:10298400be0190001e0078009e00900031f8070000
:102994000000e000010035000044eb000804e00002
:1029a400030032001e0078009e00900002003700f1
:1029b4002e009000be0090004f0478000080fa00c2
:1029c400000006000c00fa00881f7800008fbe008b
:1029d4002207980033079800440798005507980089
:1029e40018c0b3004e019000de0190001e00780074
:1029f4009e00900019f807000000e00001003c0070
:102a04000044eb000804e000040032004e01900092
:102a1400de019000028fbe000e00370018c0b30024
:102a24002e019000be0190001e0078009e009000d0
:102a340008f807000000e000010035000044eb0046
:102a44000804e000030032002e019000be01900053
:102a5400028fbe001e0078009e0090004f04780094
:102a64000080fa00000006000400fa00008fbe0097
:102a7400b2fd2000930424001e0078009e00900004
:102a8400b2f707000200200043332400daf80700fd
:102a94000080fa00000006000400fa00008fbe0067
:102aa400b2fd2000930424001e0078009e009000d4
:102ab400d1f807000200200043332400a3f70700e5
:102ac4000080fa00000006000800fa0020079800c1
:102ad40031079800b2fd2000930424002e009000da
:102ae400be0090003bf70700b2fd2000930c2400c9
:102af4001df80700b2fd20009304240036f70700f8
:102b0400008fbe00b2fd2000930424001e00780054
:102b14009e00900030f70700b2fd2000930c2400c3
:102b240011f80700b2fd20009304240029f70700e0
:102b34000080fa00000006000a00fa00300798003e
:102b440041079800be0090004e009000008f4000a6
:102b54001e00780010017800900190001207980080
:102b6400230798001e009000ae0090000080fa0039
:102b7400000006000600fa001007980021079800dc
:102b84009e0090002e009000008f40001e007800f0
:102b940090009000100078000080fa000000060009
:102ba4000c00fa00200798003107980042079800ab
:102bb4005307980068004700100798000000eb00d6
:102bc400000f78000a0037003e0090001e0040000d
:102bd400ae009000008040009e0078001e0190002e
:102be4008100410091407800014878001e0fe80000
:102bf4001e007800e30f5000f3ff34000080fa0059
:102c0400000006000c00fa00200798003107980025
:102c1400420798005307980068004700100798007f
:102c24000000eb00000f78000b0037003e0090001e
:102c34001e004000ae0090000080400032002000e2
:102c44009e0051001e0190008100410091407800d7
:102c5400014878001e0fe8001e007800e30f5000c2
:102c6400f2ff34000080fa00000006000c00fa00b5
:102c740020079800310798004207980053079800ee
:102c840068004700100798000000eb00000f780070
:102c94000a0037003e0090001e004000ae00900085
:102ca400008040009e0078001e01900081004100d9
:102cb40091407800014878001e0fe8001e0078005b
:102cc400e70f5000f3ff34000080fa000000060014
:102cd4000600fa0010079800210798000040eb0056
:102ce400004f780041000700ae009000810f5000b3
:102cf400110034000040eb00004f7800060037005c
:102d04001e80fb009e009000008040001040780070
:102d14000b0007001e4fe8009e80fb002e00900071
:102d2400808f5000f6ff35002c0007000004e000ff
:102d340001003a00200007000080fa0000000600ad
:102d44000200fa00004f7800208180006103210016
:102d5400808040009e4878000000e80020818800c0
:102d64002181800000082000808f500001003a007b
:102d74002430ef000080fa00000006000200fa0090
:102d8400308180006103210080804000114f780071
:102d94000000e800308188003181800000082000b4
:102da400808f500001003a002630ef001e4078006a
:102db4000080fa00000006000200fa0010c0b30010
:102dc40028f0b700edff0700004f78001e80fb00dd
:102dd400201188000080fa00000006000000fa00bc
:102de40028d0bf000080fa00000006000000fa00ae
:102df4000400070001082000008050000080fa0051
:102e0400000006000000fa0021818000308180006b
:102e1400808f5000040035002181800030818000c3
:102e24000080500004003700218180003081800040
:102e3400008050000008b0000080fa000000060086
:102e44000200fa00004f780050818000610b2100dd
:102e5400808040009e4878000000e800508188008f
:102e64005181800000082000808f500001003a004a
:102e74002a30ef000080fa00000006000200fa0089
:102e840060818000610b210080804000114f780038
:102e94000000e80060818800618180000008200053
:102ea400808f500001003a002c30ef001e40780063
:102eb4000080fa00000006000000fa005181800042
:102ec40060818000808f50000200320010c0b30087
:102ed400010037000040eb000080fa00000006000b
:102ee4000000fa00040007000108200000805000e0
:102ef4000080fa00000006000000fa005181800002
:102f040060818000808f500004003900518180006e
:102f140060818000008050000400370051818000ef
:102f240060818000008050000008b0000080fa003a
:102f3400000006000000fa002002a9000111800030
:102f440090ff2f00008060000011880020a2a900db
:102f54002062a800500520004011880023a2a90087
:102f640023e2a9000188a9002188a800111180008a
:102f7400f0f32f0000806000101188000168a900a0
:102f84002168a80021e2a8002342a8000080fa00da
:102f9400000006000600fa001007980021079800b8
:102fa4000040eb00004f78000040eb00004f780039
:102fb4000e003700000000001111800000202000e6
:102fc400008060000000e000fbff3a001e0090005b
:102fd400104078000080fb00201188001e00900043
:102fe4000000e800100798001e4fe8009e80fb00d8
:102ff4002e009000808f5000eeff35000080fa0014
:10300400000006000000fa000e2eef001e2eef0056
:103014002e2eef003e2eef004e2eef005e2eef0020
:103024006e2eef00214ea90060cea90060eea9002b
:1030340011cea90011eea90020cea90020eea9000e
:103044002136800000f82f00008060008001b3006a
:10305400203688001134800000fc2f0000806000be
:103064000000a000103488000136800000f82f0012
:103074008080600010062000010070000036880087
:1030840001368000f00f28008080600000002600d8
:103094000100700000368800e135800000f82f0040
:1030a400808060006004200001007000e03588002a
:1030b400e1358000f00f280080806000005024007b
:1030c40001007000e03588000080fa00000006006e
:1030d4000000fa00f0032000303a8800213a800012
:1030e400f0f32f0000806000203a8800213a80002d
:1030f40000fe2f00008060000000a000203a88003d
:103104001200200080072000a10920003374200051
:10311400804978008149780082497800103a80001b
:10312400000178000200a000600420007105200066
:10313400237420008049780081497800824978000e
:1031440000000000113a8000000027008080600029
:1031540000002100808f5000faff3a0000000000b8
:10316400113a800000022000008060000000e000ae
:0c317400fbff32000080fa0000000600a3
:020000040000fa
:103180002e10000002000000800000001e10000051
:103190000600000080000000b611000026000000bc
:1031a00080000000301000000200000082000000db
:1031b0000304000032100000020000008000000044
:1031c000121000000c00000080000000361000000b
:1031d00080000000800000002410000006000000b5
:1031e00080000000b6100000800000008000000099
:1031f0002a100000040000008000000036110000ca
:10320000800000008000000000100000120000009c
:103210008000000034100000020000008000000068
:0432200000000000aa
:020000040000fa
:103224000000fa00c301a8000080eb00e00e880053
:103234000080eb00f00e8800c1e1a8000080fa00d5
:10324400000006000000fa00c305a8000080eb009f
:10325400e02e88000080eb00f02e8800c1e5a80075
:083264000080fa0000000600e2
:020000040000fa
:02000004000af0
:04afe000cfff00009f
:020000040000fa
:02000004000af0
:04afe400ffff00006b
:020000040000fa
:02000004000af0
:04afe8007fff0000e7
:020000040000fa
:02000004000af0
:04afec005fff000003
:020000040000fa
:02000004000af0
:04aff00038ff000026
:020000040000fa
:02000004000af0
:04aff400ffff00005b
:00000001FF
