:020000040000fa
:080000000002040000000000f2
:020000040000fa
:040008007003000081
:020000040000fa
:04000c00700300007d
:020000040000fa
:040010007003000079
:020000040000fa
:040014007003000075
:020000040000fa
:040018007003000071
:020000040000fa
:04001c00700300006d
:020000040000fa
:040020007003000069
:020000040000fa
:040024007003000065
:020000040000fa
:040028007003000061
:020000040000fa
:04002c00700300005d
:020000040000fa
:040030007003000059
:020000040000fa
:0400340002030000c3
:020000040000fa
:040038007003000051
:020000040000fa
:04003c00700300004d
:020000040000fa
:040040007003000049
:020000040000fa
:040044007003000045
:020000040000fa
:04004800fa020000b8
:020000040000fa
:04004c00700300003d
:020000040000fa
:040050007003000039
:020000040000fa
:040054007003000035
:020000040000fa
:040058007003000031
:020000040000fa
:04005c004c03000051
:020000040000fa
:040060007003000029
:020000040000fa
:040064007003000025
:020000040000fa
:040068007003000021
:020000040000fa
:04006c00700300001d
:020000040000fa
:040070007003000019
:020000040000fa
:040074007003000015
:020000040000fa
:040078007003000011
:020000040000fa
:04007c00700300000d
:020000040000fa
:040080007003000009
:020000040000fa
:040084007003000005
:020000040000fa
:040088007003000001
:020000040000fa
:04008c0070030000fd
:020000040000fa
:0400900070030000f9
:020000040000fa
:040094002203000043
:020000040000fa
:0400980070030000f1
:020000040000fa
:04009c0070030000ed
:020000040000fa
:0400a00070030000e9
:020000040000fa
:0400a40070030000e5
:020000040000fa
:0400a80070030000e1
:020000040000fa
:0400ac0070030000dd
:020000040000fa
:0400b00070030000d9
:020000040000fa
:0400b40070030000d5
:020000040000fa
:0400b80070030000d1
:020000040000fa
:0400bc0070030000cd
:020000040000fa
:0400c00070030000c9
:020000040000fa
:0400c40070030000c5
:020000040000fa
:0400c80070030000c1
:020000040000fa
:0400cc0070030000bd
:020000040000fa
:0400d00070030000b9
:020000040000fa
:0400d40070030000b5
:020000040000fa
:0400d80070030000b1
:020000040000fa
:0400dc0070030000ad
:020000040000fa
:0400e00070030000a9
:020000040000fa
:0400e40070030000a5
:020000040000fa
:0400e80070030000a1
:020000040000fa
:0400ec00700300009d
:020000040000fa
:0400f0007003000099
:020000040000fa
:0400f4007003000095
:020000040000fa
:0400f8007003000091
:020000040000fa
:0400fc00700300008d
:020000040000fa
:040100007003000088
:020000040000fa
:040104007003000084
:020000040000fa
:040108007003000080
:020000040000fa
:04010c00700300007c
:020000040000fa
:040110007003000078
:020000040000fa
:040114007003000074
:020000040000fa
:040118007003000070
:020000040000fa
:04011c00700300006c
:020000040000fa
:040120007003000068
:020000040000fa
:040124007003000064
:020000040000fa
:040128007003000060
:020000040000fa
:04012c00700300005c
:020000040000fa
:040130007003000058
:020000040000fa
:040134007003000054
:020000040000fa
:040138007003000050
:020000040000fa
:04013c00700300004c
:020000040000fa
:040140007003000048
:020000040000fa
:040144007003000044
:020000040000fa
:040148007003000040
:020000040000fa
:04014c00700300003c
:020000040000fa
:040150007003000038
:020000040000fa
:040154007003000034
:020000040000fa
:040158007003000030
:020000040000fa
:04015c00700300002c
:020000040000fa
:040160007003000028
:020000040000fa
:040164007003000024
:020000040000fa
:040168007003000020
:020000040000fa
:04016c00700300001c
:020000040000fa
:040170007003000018
:020000040000fa
:040174007003000014
:020000040000fa
:040178007003000010
:020000040000fa
:04017c00700300000c
:020000040000fa
:040180007003000008
:020000040000fa
:040184007003000004
:020000040000fa
:040188007003000000
:020000040000fa
:04018c0070030000fc
:020000040000fa
:0401900070030000f8
:020000040000fa
:0401940070030000f4
:020000040000fa
:0401980070030000f0
:020000040000fa
:04019c0070030000ec
:020000040000fa
:0401a00070030000e8
:020000040000fa
:0401a40070030000e4
:020000040000fa
:0401a80070030000e0
:020000040000fa
:0401ac0070030000dc
:020000040000fa
:0401b00070030000d8
:020000040000fa
:0401b40070030000d4
:020000040000fa
:0401b80070030000d0
:020000040000fa
:0401bc0070030000cc
:020000040000fa
:0401c00070030000c8
:020000040000fa
:0401c40070030000c4
:020000040000fa
:0401c80070030000c0
:020000040000fa
:0401cc0070030000bc
:020000040000fa
:0401d00070030000b8
:020000040000fa
:0401d40070030000b4
:020000040000fa
:0401d80070030000b0
:020000040000fa
:0401dc0070030000ac
:020000040000fa
:0401e00070030000a8
:020000040000fa
:0401e40070030000a4
:020000040000fa
:0401e80070030000a0
:020000040000fa
:0401ec00700300009c
:020000040000fa
:0401f0007003000098
:020000040000fa
:0401f4007003000094
:020000040000fa
:0401f8007003000090
:020000040000fa
:0401fc00700300008c
:020000040000fa
:040200007003000087
:020000040000fa
:040204007003000083
:020000040000fa
:04020800700300007f
:020000040000fa
:04020c00700300007b
:020000040000fa
:040210007003000077
:020000040000fa
:040214007003000073
:020000040000fa
:04021800700300006f
:020000040000fa
:04021c00700300006b
:020000040000fa
:040220007003000067
:020000040000fa
:040224007003000063
:020000040000fa
:04022800700300005f
:020000040000fa
:04022c00700300005b
:020000040000fa
:040230007003000057
:020000040000fa
:040234007003000053
:020000040000fa
:04023800700300004f
:020000040000fa
:04023c00700300004b
:020000040000fa
:040240007003000047
:020000040000fa
:040244007003000043
:020000040000fa
:04024800700300003f
:020000040000fa
:04024c00700300003b
:020000040000fa
:040250007003000037
:020000040000fa
:040254007003000033
:020000040000fa
:04025800700300002f
:020000040000fa
:04025c00700300002b
:020000040000fa
:040260007003000027
:020000040000fa
:040264007003000023
:020000040000fa
:04026800700300001f
:020000040000fa
:04026c00700300001b
:020000040000fa
:040270007003000017
:020000040000fa
:040274007003000013
:020000040000fa
:04027800700300000f
:020000040000fa
:04027c00700300000b
:020000040000fa
:040280007003000007
:020000040000fa
:100400006f0821000eff2c000e0188000000000084
:10041000000020000000e000020032000001200087
:100420002002880014000700af0007000000e00071
:1004300003003a00e05721000100200002003700cd
:100440000000200001002000810f70000100320038
:100450000f000700000020000000e0000200320052
:100460000000020000000000dc0c020000000000a0
:100470000040da000000fe00200020000000e00044
:1004800002003200100020009001880000000600e9
:10049000a1028800800478000000eb001f003700f4
:1004a000e284440054a0b4009905ba00e2844400f8
:1004b00054a0b4009906ba00e284440054a0b400e9
:1004c0000006eb00476fde00fd07b200ae018800ba
:1004d000636ce10003003a000ad801000000eb0061
:1004e0000e003700606ce10008003a00004deb00a0
:1004f0000a05e800020039003420ec000af0a000f0
:100500008b05e900f9ff3e00040037006168e10057
:10051000010032000086eb000b00070019c7ba008b
:100520000e04e0001905ba0003003a000a00e000da
:10053000dbff3a0000000600fe07b200ae028800b2
:100540008a047800f5ff37000cd0a300e20f4d00bd
:100550001c00390089027800354dba000a05e80010
:10056000020039003420ec000af0a0008b05e900fd
:100570000f003200254dba000a05e80002003900dc
:100580003420ec000af0a0008b05e90008003200de
:100590000c00e0000600320015cdba000a05e800a4
:1005a000020039003420ec000af0a0008b05e900bd
:1005b0008984e80054a0b4000b00e000e2ff3a0098
:1005c000000006009902ba00055d78008b05e9007d
:1005d000f7ff3200c82ade00055d78008b05e900d0
:1005e000f3ff32000c00e000f1ff320019ddba0029
:1005f000eeff37000000fa000108a9000080fa00b1
:10060000004006003600f800809fbe00829fbe00ba
:10061000849fbe00869fbe000000fa000068a9000b
:100620006c060700fa0807000080fa004f03be00be
:100630004f02be004f01be004f00be003600f90061
:10064000004006003600f800809fbe00829fbe007a
:10065000849fbe00869fbe000000fa000368a900c8
:10066000b0818000c181800061004000e0804800ce
:10067000b0818800c1818800270407000080fa004b
:100680004f03be004f02be004f01be004f00be0030
:100690003600f90000400600801f78000000fa00d4
:1006a00001a8a90000188000e083880010188000cd
:1006b000f0838800201880000084880030188000b3
:1006c00010848800401880002084880010c0b30087
:1006d0003ff0b7000080fa004f00780000400600ad
:1006e0000040da000000fe000000050003f0a20058
:1006f000889fbe008a9fbe008c1f78001b010700e8
:10070000220133006450e1004f0032006420e10018
:100710005200320003826c0007003b000905d00044
:100720000306d000820f54000c065d000200390061
:1007300002003200890178000306780085825500a6
:1007400004003d000003fd008103fd008502ea0076
:100750008b854200840f720002003b006000100095
:10076000e08018006011b8000005eb007a28e10075
:100770000a00390006007800c75ddd00f707b20007
:10078000878075002d003700828171000a01780092
:10079000610560008180d1000080d3008502e900fe
:1007a000f9ff3b00060440008784480002003b003c
:1007b00060041400e0841c000988a30007003200d4
:1007c0008a81710082817100610164008904d10015
:1007d0000884d3008b05e800170037000978a300d0
:1007e00013003a000b00e000130034008b05e90011
:1007f0000804440089844c000a4474000978a3006a
:100800000d003a000b00e000070034008b05e90002
:100810000804440089844c0001003a000b002000c9
:100820000978a300f7ff32000001eb000200370057
:10083000828171000a017800910007000cf0a70086
:1008400001f0a000da0037006420e10002003a0065
:10085000838f6c00da0033000801be000200be0086
:10086000d3003700889fbe008a9fbe008c1f78008f
:10087000be000700c500330003866c006450e10031
:100880002e0032006420e100330032006150e100ac
:100890002f0032006120e1003100320085855500d3
:1008a000eb07b00009002000080420000500370015
:1008b0000804440089844c000a0031000603430008
:1008c00087834b000001530081815b00f8ff3300f8
:1008d0000203be000800a0000804440089844c0004
:1008e000f6ff3900c639dd008301730001003200d4
:1008f000130020008904d1000884d3000998a300c4
:10090000050032000800a7000300a0008904d10000
:100910000884d3008b05e8008904d1000884d30043
:100920000001eb000281d2005500070001f0a10098
:100930000cf0a70001f0a0009d0037006420e1004a
:100940009f0032000801be000200be00f7ff370022
:100950006120e1009a0032006000b800f3ff370028
:100960000000200001f82700f0ff370014002000ed
:10097000ca003700f4ff2f00c80037000001be0096
:10098000650007000470a70003f0a1006509b1002d
:10099000160032000d0035006828e1000600350021
:1009a000f0ff2f00f1ff27000300e00013003b00e1
:1009b0000100280000000500000040008180480080
:1009c0008502e900fcff3a0008003700f88f42007a
:1009d00002003c008000eb00000005008100d10017
:1009e0000080d3008502e800fcff3a000300e0002d
:1009f00002003b0060001000e080180000000600cc
:100a00000001be00440007000470a70003f0a1002d
:100a100003f8a30013003a006509b100100032008a
:100a2000090035006928e1000200350001002800b6
:100a30000000050000004000818048008502e900b8
:100a4000fcff3a0000000600f88f42000500350068
:100a50008100d1000080d3008502e800fcff3a004d
:100a6000000006008000eb00000005004f89de005a
:100a700082017800a40037006011b800b20037008e
:100a800081002000618055000b003d000b0020001c
:100a900061fe2f000100e1001d0034008281710021
:100aa000610164008904d1000884d3000000e800db
:100ab000faff3a007100200061006400030070003a
:100ac000020060000900320061044400e0844c0030
:100ad0000988a500050032008b05e8006808e100e0
:100ae00002003a008904d1000884d300f20f2000ec
:100af0000258e10005003d00c75ddd00f907b200c6
:100b00008980750008007800000006000bf82700b7
:100b10008b00780000000500c70ade00f107b20074
:100b2000f50fb20008003200e1cf420002003200af
:100b30000170a00024000500810f70000100320048
:100b40000408050044000500810f700002003a000f
:100b5000140005008502e9000000400081c0480043
:100b6000fcff3b000170a000240005000004be0053
:100b7000e9ff07000003be000405be000200be003e
:100b8000e5ff0700844f7500000006000200be006c
:100b90006450e100050036006420e10002003600e8
:100ba0000968a30001003a000800be000160a0002f
:100bb0004f0678004f05be004f04be00000006003f
:100bc000f0ff2f00f1ff2700f9ff3700889fbe00dc
:100bd0008a9fbe008c1f7800e4ff0700ebff330004
:100be00003866c006450e100240032006420e100c0
:100bf000270032006150e100220032006120e10054
:100c0000210032008b854200eb07b1000134b800af
:100c1000003ab8000804420089844a00013ab8004a
:100c20000030b8008880400009014a000400330009
:100c30000000400081804800020149008b05e90066
:100c4000c909dd008301700001003200130020009b
:100c5000c814de004814dd004709de001200b200af
:100c6000c808de000884700085ff070001f0a100bd
:100c70000cf0a70001f0a000cdff37006120e100db
:100c8000cfff32000801be000200be00f7ff3700b0
:100c90006150e100fcff3a00c9ff3700889fbe00a9
:100ca0008a9fbe00841f7800b0ff07004f007800c5
:100cb00011003300f0ff2f00838f6c0006003b0013
:100cc000040565000a00a7000800370009f0a60027
:100cd0001000200008003700820f5400838f5c0052
:100ce000030039001000200001003e000000200039
:100cf00009f0a7000000ea004f05be004f04be0047
:100d00000000e00000000600881f7800030478005f
:100d10000300e00007003d0060001000e0801800c4
:100d200060011900e081190002003b0001f02d0074
:100d3000030037000400070008f0a70001f0a0003e
:100d40004f04780000000600889fbe008a9fbe0006
:100d500000827000040271000482710026003200db
:100d60000004be000200be006011b8006b09200044
:100d7000950220000182cf000a0039000541b10030
:100d80000082cf00070039000541b1000982cf0081
:100d9000040039000541b1000882cf00010039008c
:100da0000541b10005425200120032000a003b002a
:100db00082817100610164008100d1000080d30054
:100dc0008984d3000884d3008b05e8000442e8003e
:100dd000f7ff3a00070037000804440089844c00fc
:100de00000004800818048008b05e9000442e900ca
:100df000f9ff3a0022ff07004f05be004f04be0076
:040e000000000600e8
:020000040000fa
:100e04000200fa00881f78000040eb00004f7800d1
:100e1400c4828000d5828000808080009180800020
:100e240018c0b3000001be000400be00cefe0700df
:100e34000000e000010035000044eb000804e0007d
:100e440034003a00e4828000f5828000c080800093
:100e5400d180800018c0b3000001be000400be00b1
:100e6400c1fe07000000e000010035000044eb0073
:100e74000804e0000d003a0004838000158380001c
:100e8400c0808000d180800018c0b3000001be0083
:100e94000400be00b4fe07000000e00001003500bd
:100ea4000044eb000804e0001d003200a48280002e
:100eb400b5828000c0808000d180800018c0b3005b
:100ec4000001be000400be00a7fe07000000e00011
:100ed400010035000044eb000804e0000d003a0076
:100ee4002483800035838000c0808000d18080000e
:100ef40018c0b3000001be000400be009afe070043
:100f04000000e000010035000044eb000804e000ac
:100f14000300320030c0b300004f780035013700c1
:100f2400a4828000b58280004080800051808000cf
:100f340018c0b3000001be000400be008afe070012
:100f44000000e000010035000044eb000804e0006c
:100f54000300320090c0b300004f78002501370031
:100f6400e4828000f582800040808000518080000f
:100f740018c0b3000001be000400be007afe0700e2
:100f84000000e000010035000044eb000804e0002c
:100f940003003200a0c0b300004f780015013700f1
:100fa400a4828000b582800040808000518080004f
:100fb40018c0b3000001be000400be006afe0700b2
:100fc4000000e000010035000044eb000804e000ec
:100fd400100032002483800035838000008080006c
:100fe4001180800018c0b3000001be000400be00e0
:100ff4005dfe07000000e000010035000044eb0046
:101004000804e0000300320020c0b300004f780061
:10101400f8003700e4828000f58280004080800080
:101024005180800018c0b3000001be000400be005f
:101034004dfe07000000e000010035000044eb0015
:101044000804e0001000320004838000158380004f
:10105400008080001180800018c0b3000001be0031
:101064000400be0040fe07000000e000010035005f
:101074000044eb000804e0000300320010c0b30099
:10108400004f7800db003700e4828000f5828000a6
:10109400408080005180800018c0b3000001be0071
:1010a4000400be0032fe07000000e00001003c0026
:1010b4000044eb000804e0001d003200c4828000fc
:1010c400d5828000808080009180800018c0b300a9
:1010d4000001be000400be0025fe07000000e00081
:1010e40001003c000044eb000804e0001000320062
:1010f40004838000158380000080800011808000bc
:1011040018c0b3000001be000400be0016fe0700b4
:101114000000e000010035000044eb000804e0009a
:101124000300320080c0b300004f7800b1003700e4
:10113400a4828000b58280004080800051808000bd
:1011440018c0b3000001be000400be0008fe070082
:101154000000e00001003c000044eb000804e00053
:101164001d003200c4828000d5828000808080000f
:101174009180800018c0b3000001be000400be00ce
:10118400fbfd07000000e00001003c000044eb0010
:101194000804e000100032002483800035838000be
:1011a400008080001180800018c0b3000001be00e0
:1011b4000400be00ecfd07000000e0000100350063
:1011c4000044eb000804e0000300320070c0b300e8
:1011d400004f780087003700c4828000d5828000e9
:1011e400a0808000b180800018c0b3000001be0060
:1011f4000400be00dcfd07000000e0000100350033
:101204000044eb000804e00034003a00a4828000ab
:10121400b5828000608080007180800018c0b300b7
:101224000001be000400be00cffd07000000e00086
:10123400010035000044eb000804e00027003a00f8
:10124400e4828000f58280006080800071808000ec
:1012540018c0b3000001be000400be00c2fd0700b8
:101264000000e000010035000044eb000804e00049
:101274001a003a0024838000358380002080800097
:101284003180800018c0b3000001be000400be001d
:10129400b5fd07000000e000010035000044eb004c
:1012a4000804e0000d003a000483800015838000e8
:1012b400208080003180800018c0b3000001be008f
:1012c4000400be00a8fd07000000e0000100350096
:1012d4000044eb000804e0000300320040c0b30007
:1012e400004f780043003700a4828000b58280005c
:1012f400408080005180800018c0b3000001be000f
:101304000400be009afd07000000e00001003c005c
:101314000044eb000804e00036003200c482800080
:10132400d5828000808080009180800018c0b30046
:101334000001be000400be008dfd07000000e000b7
:1013440001003c000044eb000804e00029003200e6
:10135400e4828000f582800040808000518080001b
:1013640018c0b3000001be000400be0080fd0700e9
:101374000000e00001003c000044eb000804e00031
:101384001c003200048380001583800000808000ec
:101394001180800018c0b3000001be000400be002c
:1013a40073fd07000000e00001003c000044eb0076
:1013b4000804e0000f00320024838000358380009d
:1013c400008080001180800018c0b3000001be00be
:1013d4000400be0066fd07000000e00001003c00c0
:1013e4000044eb000804e000020032000040eb007f
:1013f400004f78001e4078000004e00011003a001d
:1014040020c0b3001ef0b700128180002381800049
:10141400b0818000c18180000001510081815900a8
:10142400800c200001002000800f5100818f5900a2
:10143400ac0036002070ef002630ef002830ef00bb
:10144400a80037001e407800e34f50000700320028
:101454003281800043818000800c20000100200044
:10146400800f5100818f590037003600b081800011
:10147400c18180001081880021818800e48280007d
:10148400f5828000a0828000b18280000001be004d
:101494000400be0094fc07009b04070018c0b300be
:1014a4000200200003f8230031fd07000000e000e3
:1014b40001003c000044eb000804e0001b00320083
:1014c40020d0bf000004e00018003a00e48280004d
:1014d400f5828000a0828000b182800018c0b30031
:1014e4000001be000400be0021fd07000000e00072
:1014f40001003c000044eb000804e0000500320059
:1015040080c0b3001ef0b70010c0b30020f0b700d5
:1015140004003700a0c0b3001ef0b70020c0b30021
:1015240020f0b700000000006e00370020d0bf009c
:101534000080fb0063004000004078000040400051
:101544001ef0b700670037001e407800e24f5000dd
:1015540009003a0030818000418180006100400030
:10156400e0804800308188004181880040c0b30099
:101574001ef0b7005b0037001e407800e14f5000ba
:1015840009003a0030818000418180006100400000
:10159400e0804800308188004181880060c0b30049
:1015a4001ef0b7004f0037001e407800e44f500093
:1015b40011003a0000c1b3001ef0b7001281800090
:1015c40023818000b0818000c1818000000151002e
:1015d40081815900800c200001002000800f5100ff
:1015e400818f59003f0036002070ef002630ef0055
:1015f4002830ef003b0037001e407800e54f5000d4
:1016040003003a0080c0b3001ef0b7003500370075
:101614001e407800e64f500003003a00a0c0b3001b
:101624001ef0b7002f0037001e407800e74f50002f
:1016340009003a0040c1b3001ef0b70030818000b9
:101644004181800061004000e080480030818800d2
:1016540041818800230037001e407800e84f500085
:1016640009003a0020c1b3001ef0b70030818000a9
:101674004181800061004000e080480030818800a2
:1016840041818800170037001e407800e94f500060
:1016940009003a00308180004181800061004000ef
:1016a400e0804800308188004181880080c0b30018
:1016b4001ef0b7000b0037001e407800ea4f5000c0
:1016c40008003a00308180004181800061004000c0
:1016d400e08048003081880041818800a0c0b300c8
:1016e4001ef0b7001ed0bf008080fb001dd0bf00dd
:1016f4000080fb000000e900808f500002003200ef
:101704001ed0bf001df0b7004f0478000080fa001f
:10171400000006000000fa001172800000002100a1
:10172400008060000000e0000b003200f1030700bd
:101734001c70ef001d70ef001e70ef001f70ef00b3
:101744002070ef002230ef002430ef002630ef004d
:101754002830ef001d70ef001dd0bf000080fb009b
:10176400cf80de005201200003002000820f5000d1
:10177400838f58008b003e000006010015003700df
:101784001e0037001f003700290037002a003700e9
:1017940034003700350037003f0037004000370081
:1017a4004a0037004b003700550037007d003700f2
:1017b4007c0037007b0037007a0037005200370086
:1017c4005c0037005d0037006700370068003700b1
:1017d400720037003630ef003830ef000041eb0084
:1017e4006000b800e901070012c0b3006000b8004f
:1017f400e601070010c0b3001df0b70080fd07002c
:101804006a0037000041eb000000200001222400a0
:10181400de01070012c0b3000000200001222400f2
:10182400da01070030c0b3001df0b7005f003700d5
:1018340073fd07005d0037000041eb00000020004d
:10184400011a2400d101070012c0b30000002000d7
:10185400010a2c00cd01070050c0b3001df0b700f1
:101864005200370066fd0700500037000041eb00ce
:1018740000002000010a2c00c401070012c0b300bc
:1018840000002000011a2400c001070070c0b3004a
:101894001df0b7004500370059fd0700430037002d
:1018a4000041eb000000200001152400b7010700ef
:1018b40012c0b3000000200001152c00b301070082
:1018c40090c0b3001df0b700380037004cfd07008e
:1018d400360037000041eb000000200001152c0009
:1018e400aa01070012c0b300000020000115240063
:1018f400a6010700b0c0b3001df0b7002b003700ed
:101904003ffd0700290037000041eb0000002000e4
:10191400011a24009d01070012c0b300000020003a
:10192400011a24009901070010c1b3001df0b7008b
:101934001e00370032fd07001c0037000041eb0099
:1019440000002000011a24009001070012c0b30017
:1019540000002000011f24008c01070030c1b300e7
:101964001df0b7001100370025fd07000f003700f8
:101974000041eb0000002000011f24008301070048
:1019840012c0b30000002000011a24007f010700e8
:1019940050c1b3001df0b7000400370018fd070064
:1019a400020037001d70ef00000000000080fa0004
:1019b400000006000600fa0024040700760407006d
:1019c4001d030700350307003f030700f20007006b
:1019d400d403070015040700e14f5000b5003a0096
:1019e40016040700a0828000b18280004083880032
:1019f40051838800c0828000d18280006083880087
:101a040071838800e0828000f182800080838800f6
:101a1400918388000083800011838000a083880064
:101a2400b18388002083800031838000c0838800d4
:101a3400d1838800f9030700000f78001e80e800b6
:101a4400100078008000eb000afc0700323323000a
:101a5400330524005cfc0700020020000358240026
:101a64007ffb0700d2cc2c00c304240056fc0700e3
:101a740010079800210798001e019000ae01900005
:101a8400000020008120240075fb070002002000d4
:101a9400030a24004cfc0700a0828800b18288005d
:101aa4009e00780064804000100078008000eb0005
:101ab400f0fb0700323323003305240042fc070007
:101ac400020020000358240065fb0700d2cc2c0040
:101ad400c30424003cfc0700100798002107980069
:101ae4001e019000ae01900000002000812024001f
:101af4005bfb070002002000030a240032fc0700fd
:101b0400c0828800d18288009e00780068804000ee
:101b1400100078008000eb00d6fb0700323323006e
:101b24003305240028fc0700020020000358240089
:101b34004bfb0700d2cc2c00c304240022fc07007a
:101b440010079800210798001e019000ae01900034
:101b5400000020008120240041fb07000200200037
:101b6400030a240018fc0700e0828800f182880040
:101b74009e00780066804000100078008000eb0032
:101b8400bcfb070032332300330524000efc07009e
:101b9400020020000358240031fb070010079800be
:101ba400210798001e019000ae0190000000200063
:101bb400812024002afb070002002000030a2400dd
:101bc40001fc070000838800118388001e00780050
:101bd400100078008000eb00a6fb070032332300de
:101be40033052400f8fb07000200200003582400fa
:101bf4001bfb070010079800210798001e019000a6
:101c0400ae019000000020008120240014fb070096
:101c140002002000030a2400ebfb07002083880055
:101c240031838800e0828000f1828000020020007d
:101c3400030c24000afb0700e0828800f18288007c
:101c4400a0828000b182800002002000030c2400e6
:101c540003fb0700a0828800b1828800c082800054
:101c6400d182800002002000030c2400fcfa07004b
:101c7400c0828800d1828800208380003183800064
:101c840002002000030c2400f5fa070020838800da
:101c940031838800008380001183800002002000cb
:101ca400030c2400eefa07000083880011838800e7
:101cb400620307007082800081828000020020009d
:101cc4000322240028fb07000000e00009003a007a
:101cd4003082800041828000020020000322240020
:101ce40021fb07000000e00002003a0064eea800b7
:101cf4000100370064eea900117280000000210089
:101d0400008060000000e0000e003a007082800055
:101d140081828000020020000322240012fb0700bd
:101d24000000e00009003a00308280004182800017
:101d340002002000032224000bfb07000000e00047
:101d440002003a0064cea8000100370064cea90066
:101d5400708280008182800002002000032224001f
:101d640001fb07000000e00009003a003082800017
:101d7400418280000200200003222400fafa0700b6
:101d84000000e00002003a00254ea80011ff3700d1
:101d9400254ea9000fff37000000fa0011608000f3
:101da40080ff2f00008060001060880000fa20008f
:101db4002060880023aca800238ca8001161800057
:101dc400f03f2f000080600000a0a0001061880098
:101dd4003000200020618800c3aca800c38ca80098
:101de40011668000f03f2f000080600000a0a0007a
:101df40010668800300020002066880001eca800ee
:101e04000080fa00000006000600fa00881f78002f
:101e1400008fbe00424798004e409000e14f5000b2
:101e24002c003a0018c0b3006011b8001e007800fe
:101e34009e009000cefa07000000e00001003c0084
:101e44000044eb000804e000110032001e01780099
:101e54009e019000328288004382880023cca9002e
:101e640015eea80023eca800308280004182800097
:101e7400020020000322240053fb07002202070073
:101e8400defa070000007800306188003c0037006b
:101e94001e0178009e0190003282880043828800ef
:101ea40023eca90015cea80023cca8003082800022
:101eb40041828000020020000322240042fb07002c
:101ec40011020700cdfa0700000078003061880095
:101ed4002b00370018c0b3006011b8001e00780052
:101ee4009e009000a0fa07000000e0000100350009
:101ef4000044eb000804e000110032001e017800e9
:101f04009e0190007282880083828800c3cca9005d
:101f140024eea800c3eca8007082800081828000b7
:101f2400020020000322240027fb0700f60107001b
:101f3400b2fa07000000780030668800100037000d
:101f44001e0178009e0190007282880083828800be
:101f5400c3eca90024cea800c3cca80070828000e2
:101f640081828000020020000322240016fb070067
:101f7400e5010700a1fa0700000078003066880038
:101f84004f0478000080fa00000006000600fa0002
:101f9400008fbe00424798004e409000e14f500031
:101fa40005003a001e0178009e019000128288000c
:101fb40023828800040037001e0178009e019000ef
:101fc40052828800638288000080fa0000000600c4
:101fd4000000fa00889fbe008a9fbe0074828000c1
:101fe40085828000508280006182800018c0b30026
:101ff4000001be000400be005bfa07000000e00020
:10200400010035000044eb000804e0000f0032003a
:1020140058828000698280007a8280008b828000ee
:102024003cd0bf000080fb00cf80de008efa0700aa
:102034000001be000a00be00acf907000801be00a2
:10204400df0107007082880081828800748280002a
:1020540085828000508280006182800018c0b300b5
:102064000001be000400be0041fa07000000e000c9
:1020740001003c000044eb000804e0000f003200c3
:1020840058828000698280007a8280008b8280007e
:102094003cd0bf000080fb00cf80de0072fa070056
:1020a4000001be000a00be008ff907000801be004f
:1020b400ab010700708288008182880070828000f2
:1020c4008182800018c0b3006011b80028fa0700ac
:1020d4000000e00001003c000044eb000804e000c4
:1020e40004003200c3eca90024cea800c3cca8008d
:1020f40003003700c3cca90024eea800c3eca80059
:1021040070828000818280007f010700020020002d
:1021140003222400acfa070038fa07000000780014
:1021240030668800348280004582800010828000fe
:102134002182800018c0b3000001be000400be006c
:1021440009fa07000000e000010035000044eb003c
:102154000804e0000f003200188280002982800009
:102164003a8280004b8280003cd0bf000080fb009c
:10217400cf80de003cfa07000001be000a00be006a
:102184005af907000801be008d010700308288005b
:102194004182880034828000458280001082800061
:1021a4002182800018c0b3000001be000400be00fc
:1021b400eff907000000e00001003c000044eb00e0
:1021c4000804e0000f003200188280002982800099
:1021d4003a8280004b8280003cd0bf000080fb002c
:1021e400cf80de0020fa07000001be000a00be0016
:1021f4003df907000801be0059010700308288003c
:1022040041828800308280004182800018c0b3007f
:102214006011b800d6f907000000e00001003c009e
:102224000044eb000804e0000400320023cca900c1
:1022340015eea80023eca8000300370023eca90046
:1022440015cea80023cca8003082800041828000f3
:102254002d01070002002000032224005afa07007f
:10226400e6f9070000007800306188004f05be00e1
:102274004f04be000080fa00000006000400fa00cb
:10228400881f7800008fbe0021088000f0fc2f001a
:1022940000806000200888001e0078009e009000e6
:1022a4000001be0011f90700008fbe001e01780076
:1022b4009e0190000068290081c1240068f907008c
:1022c40018c0b30002f02f00f3772400a8f9070028
:1022d4000000e00001003c000044eb000804e000c2
:1022e4005400320021088000f0fc2f0000806000c0
:1022f4000040a000200888001e0178009e01900084
:102304000068290081c1240055f90700020020005b
:102314000310240052f9070018c0b30002f02f0084
:10232400f377240092f907000000e00001003c006c
:102334000044eb000804e000320032002108800071
:10234400f0fc2f00008060000050a00020088800ee
:102354001e0178009e0190000068290081c12400bc
:102364003ff9070002002000032824003cf907007d
:1023740018c0b30002f02f00f37724007cf90700a3
:102384000000e00001003c000044eb000804e00011
:1023940010003200210880000003200001007000ba
:1023a400200888001e0178009e0190000068290022
:1023b40081c124002af90700020020000338240008
:1023c40027f907006cf9070000007800100888005e
:1023d400200037001e0178009e019000006829004b
:1023e40081c124001ef907000200200003282400f4
:1023f4001bf9070060f90700000078001008880046
:10240400140037001e0178009e0190000068290026
:1024140081c1240012f907000200200003102400e7
:102424000ff9070054f9070000007800100888002d
:10243400080037001e0178009e0190000068290002
:1024440081c1240006f907004bf907000000780059
:10245400100888004f0478000080fa00000006008d
:102464000400fa00881f7800008fbe00f108800085
:10247400f0fc2f0000806000f00888001e01780046
:102484009e0190000068290081c12400f4f807002f
:1024940018c0b30002f02f00f377240034f90700ca
:1024a4000000e00001003c000044eb000804e000f0
:1024b40054003200f1088000f0fc2f00008060001e
:1024c4000040a000f00888001e0178009e019000e2
:1024d4000068290081c12400e1f8070002002000ff
:1024e40003102400def8070018c0b30002f02f0028
:1024f400f37724001ef907000000e00001003c000f
:102504000044eb000804e00032003200f1088000cf
:10251400f0fc2f00008060000050a000f00888004c
:102524001e0178009e0190000068290081c12400ea
:10253400cbf807000200200003282400c8f8070095
:1025440018c0b30002f02f00f377240008f9070045
:102554000000e00001003c000044eb000804e0003f
:1025640010003200f1088000000320000100700018
:10257400f00888001e0178009e0190000068290080
:1025840081c12400b6f807000200200003382400ab
:10259400b3f80700f8f8070000007800d0088800b6
:1025a400200037001e0178009e0190000068290079
:1025b40081c12400aaf80700020020000328240097
:1025c400a7f80700ecf8070000007800d00888009e
:1025d400140037001e0178009e0190000068290055
:1025e40081c124009ef8070002002000031024008b
:1025f4009bf80700e0f8070000007800d008880086
:10260400080037001e0178009e0190000068290030
:1026140081c1240092f80700d7f807000000780071
:10262400d00888003630ef003830ef004f047800cf
:102634000080fa00000006000000fa0013e1a9007f
:1026440011e1a9001061a8001021a90081088000ef
:10265400f0fc2f0000806000800888000a21ef0051
:102664000621ef00202620007008880000a0250025
:10267400600888002142800080ff2f0000806000f5
:102684000000a000204288000108a9002108a80039
:1026940011e1a8000080fa00000006000000fa0022
:1026a4005081800061818000f4fe070005e1a900eb
:1026b4000421a9000068a9002068a80005e1a80079
:1026c4000080fa00000006000000fa00708180001b
:1026d4008181800062ff07001fe1a9001e21a9007b
:1026e4000368a9002368a8001fe1a8000080fa007d
:1026f400000006000000fa003630ef003830ef002a
:102704000080fa00000006000400fa00881f780028
:10271400008fbe0018c0b3006011b8001e0078001e
:102724009e00900092f807000000e00001003d00c8
:102734000044eb000804e000030032001e007800af
:102744009e009000030037001e0078009e00900059
:1027540001f0a2004f0478000080fa000000060097
:102764000800fa00881f7800008fbe002207980036
:102774003307980018c0b3002e019000be019000ea
:102784001e0078009e00900079f807000000e00029
:1027940001003c000044eb000804e00003003200a8
:1027a4001e0078009e009000020037002e0090006a
:1027b400be0090004f0478000080fa00000006007c
:1027c4000800fa00881f7800008fbe0022079800d6
:1027d4003307980018c0b3002e019000be0190008a
:1027e4001e0078009e0090005ff807000000e000e3
:1027f400010035000044eb000804e000030032004f
:102804001e0078009e009000020037002e00900009
:10281400be0090004f0478000080fa00000006001b
:102824000c00fa00881f7800008fbe002207980071
:1028340033079800440798005507980018c0b30060
:102844004e019000de0190001e0078009e00900072
:1028540047f807000000e00001003c000044eb00e2
:102864000804e000040032004e019000de019000f4
:10287400028fbe000e00370018c0b3002e01900076
:10288400be0190001e0078009e00900036f80700fc
:102894000000e000010035000044eb000804e00003
:1028a400030032002e019000be019000028fbe0092
:1028b4001e0078009e0090004f0478000080fa000b
:1028c400000006000400fa00008fbe00b2fd2000e4
:1028d400930424001e0078009e009000e0f7070097
:1028e4000200200043332400b7f807000080fa00f8
:1028f400000006000400fa00008fbe00b2fd2000b4
:10290400930424001e0078009e009000aef8070097
:102914000200200043332400d1f707000080fa00ae
:10292400000006000000fa0021e3a9002143a800ea
:1029340001198000f0cf2f0000806000001988008a
:102944002043a90001198000000e2000010070003e
:102954000019880011198000f0ff21000080600038
:10296400101988002343a80011198000f0cf2f000c
:1029740000806000101988001119800030f82f00c1
:10298400008060000040a000101988002203a90004
:102994002223a90025e3a900f0c0b30024e3b70073
:1029a40021198000f00f2e008080600000f02000cc
:1029b40001007000201988003303a9001e2ea8000e
:1029c4002e0ea8002f6ea8004feea8006f2ea800b0
:1029d4003063a80030c3a8003163a80031e3a80025
:1029e4002e03a8004119800000fc2f000080600025
:1029f4004019880028e3a90001a8a90021a8a8007b
:102a040021e3a8000080fa00000006000000fa009c
:102a14002023a8000080fa00000006000000fa004d
:102a2400c00721000080fa00000006000000fa0040
:102a34003fd0bf000080fa00000006000000fa004a
:102a44003f70ef000080fa00000006000000fa006a
:102a5400f0032000303a8800213a8000f0f32f0080
:102a640000806000203a8800213a800000fe2f0098
:102a7400008060000000a000203a880012002000be
:102a840080072000a10920003374200080497800c9
:102a94008149780082497800103a8000000178006a
:102aa4000200a000600420007105200023742000af
:102ab400804978008149780082497800000000004c
:102ac400113a80000000270080806000000021008f
:102ad400808f5000faff3a0000000000113a800095
:102ae40000022000008060000000e000fbff3200d4
:082af4000080fa00000006005a
:020000040000fa
:102afc001c1000000e000000800000000010000000
:102b0c001c000000820000000000a000410000003a
:102b1c004040000000b041000000f0004100000007
:102b2c00b8410000000c4200000090004100000081
:102b3c002a1000000c000000820000000000480079
:102b4c00430000004843000000a041003610000084
:102b5c000600000080000000401000003c00000057
:102b6c00800000003c100000020000008200000009
:102b7c00070000007c1000000a000000800000002c
:102b8c003e10000002000000800000000000000069
:020000040000fa
:102b9c000000fa000e2eef001e2eef002e2eef007e
:102bac003e2eef004e2eef005e2eef006e2eef004d
:102bbc00214ea90060cea90060eea90011cea9009b
:102bcc0011eea90020cea90020eea900418ea8008c
:082bdc000080fa000000060071
:020000040000fa
:02000004000af0
:04afe000cfff00009f
:020000040000fa
:02000004000af0
:04afe400ffff00006b
:020000040000fa
:02000004000af0
:04afe8007fff0000e7
:020000040000fa
:02000004000af0
:04afec005fff000003
:020000040000fa
:02000004000af0
:04aff00038ff000026
:020000040000fa
:02000004000af0
:04aff400ffff00005b
:00000001FF
